:020000040800F2
:1000000000000220091E0108A7180008AD1800080A
:10001000B3180008B9180008BF1800080000000055
:10002000000000000000000000000000B16A0008AD
:10003000C518000800000000016D00089554000874
:10004000591E0108591E0108591E0108591E0108B0
:10005000591E0108591E0108591E0108591E0108A0
:10006000591E0108591E0108591E0108591E010890
:10007000591E0108591E0108591E0108591E010880
:10008000591E0108591E0108591E010800000000F0
:10009000000000000000000000000000591E0108E0
:1000A000591E0108591E0108D5180008591E0108DB
:1000B000591E0108591E0108591E0108591E010840
:1000C000591E0108591E0108591E0108591E010830
:1000D000591E0108F1180008591E0108000000000F
:1000E000591E0108591E0108591E01080000000090
:1000F000000000000000000000000000591E010880
:1001000000000000591E0108591E0108591E01086F
:1001100000000000000000000000000000000000DF
:10012000591E0108591E010805190008591E010829
:10013000591E01080000000000000000000000003F
:100140000000000000000000000000001919000875
:10015000591E0108591E01082D190008591E0108D1
:10016000591E0108591E010800000000000000008F
:10017000000000000000000000000000000000007F
:1001800000000000591E01080000000000000000EF
:08019000591E0108591E010867
:1001A00010B5054C237833B9044B13B10448AFF3B1
:1001B00000800123237010BD6C08002000000000A7
:1001C000C839010808B5034B1BB103490348AFF315
:1001D000008008BD0000000070080020C839010838
:1001E000034613F8012B002AFBD1181A0138704777
:1001F00001F0FF01102A2BDB10F0070F08D010F8D8
:10020000013B013A8B422DD010F0070F42B3F6D1DB
:10021000F0B441EA012141EA014122F007047FF0F4
:1002200000070023F0E80256083C85EA010586EA4B
:10023000010685FA47F5A3FA87F586FA47F6A5FA87
:1002400087F68EB9EED1F0BC01F0FF0102F0070293
:1002500032B110F8013B013A83EA010313B1F8D13E
:100260000020704701387047002D06BF354603381F
:10027000073815F0010F07D1013015F4807F02BF58
:10028000013015F4C03F0130F0BC0138704700BFA9
:1002900081F0004102E000BF83F0004330B54FEA37
:1002A00041044FEA430594EA050F08BF90EA020FA4
:1002B0001FBF54EA000C55EA020C7FEA645C7FEA37
:1002C000655C00F0E2804FEA5454D4EB5555B8BF5A
:1002D0006D420CDD2C4480EA020281EA030382EACB
:1002E000000083EA010180EA020281EA0303362D5D
:1002F00088BF30BD11F0004F4FEA01314FF4801C30
:100300004CEA113102D0404261EB410113F0004F41
:100310004FEA03334CEA133302D0524263EB4303F8
:1003200094EA050F00F0A780A4F10104D5F1200E96
:100330000DDB02FA0EFC22FA05F2801841F10001F1
:1003400003FA0EF2801843FA05F359410EE0A5F1C5
:1003500020050EF1200E012A03FA0EFC28BF4CF0F6
:10036000020C43FA05F3C01851EBE37101F00045AC
:1003700007D54FF0000EDCF1000C7EEB00006EEBB9
:100380000101B1F5801F1BD3B1F5001F0CD3490843
:100390005FEA30004FEA3C0C04F101044FEA44529A
:1003A00012F5800F80F09A80BCF1004F08BF5FEA21
:1003B000500C50F1000041EB045141EA050130BD01
:1003C0005FEA4C0C404141EB0101013C28BFB1F513
:1003D000801FE9D291F0000F04BF01460020B1FA5E
:1003E00081F308BF2033A3F10B03B3F120020CDA31
:1003F0000C3208DD02F1140CC2F10C0201FA0CF00F
:1004000021FA02F10CE002F11402D8BFC2F1200C73
:1004100001FA02F120FA0CFCDCBF41EA0C01904029
:10042000E41AA2BF01EB0451294330BD6FEA040472
:100430001F3C1CDA0C340EDC04F11404C4F120025D
:1004400020FA04F001FA02F340EA030021FA04F36F
:1004500045EA030130BDC4F10C04C4F1200220FAC6
:1004600002F001FA04F340EA0300294630BD21FA04
:1004700004F0294630BD94F0000F83F4801306BFCA
:1004800081F480110134013D4EE77FEA645C18BFBE
:100490007FEA655C29D094EA050F08BF90EA020F55
:1004A00005D054EA000C04BF1946104630BD91EA4D
:1004B000030F1EBF0021002030BD5FEA545C05D150
:1004C0004000494128BF41F0004130BD14F580048F
:1004D0003CBF01F5801130BD01F0004545F0FE4103
:1004E00041F470014FF0000030BD7FEA645C1ABF38
:1004F000194610467FEA655C1CBF0B46024650EA6F
:10050000013406BF52EA033591EA030F41F400219A
:1005100030BD00BF90F0000F04BF0021704730B520
:100520004FF4806404F132044FF000054FF00001F5
:1005300050E700BF90F0000F04BF0021704730B5B6
:100540004FF4806404F1320410F0004548BF40428B
:100550004FF000013EE700BF42004FEAE2014FEAE0
:1005600031014FEA02701FBF12F07F4393F07F4FBB
:1005700081F06051704732F07F4208BF704793F0BE
:100580007F4F04BF41F40021704730B54FF46074D1
:1005900001F0004521F000411CE700BF50EA0102D4
:1005A00008BF704730B54FF000050AE050EA01027D
:1005B00008BF704730B511F0004502D5404261EBED
:1005C00041014FF4806404F132045FEA915C3FF42E
:1005D000D8AE4FF003025FEADC0C18BF03325FEACB
:1005E000DC0C18BF033202EBDC02C2F1200300FA7C
:1005F00003FC20FA02F001FA03FE40EA0E0021FAA1
:1006000002F11444BDE600BF70B54FF0FF0C4CF48E
:10061000E06C1CEA11541DBF1CEA135594EA0C0F40
:1006200095EA0C0F00F0DEF82C4481EA030621EA7B
:100630004C5123EA4C5350EA013518BF52EA0335B6
:1006400041F4801143F4801338D0A0FB02CE4FF068
:100650000005E1FB02E506F00042E0FB03E54FF098
:100660000006E1FB03569CF0000F18BF4EF0010E90
:10067000A4F1FF04B6F5007F64F5407404D25FEA8C
:100680004E0E6D4146EB060642EAC62141EA55513F
:100690004FEAC52040EA5E504FEACE2EB4F1FD0C81
:1006A00088BFBCF5E06F1ED8BEF1004F08BF5FEAFF
:1006B000500E50F1000041EB045170BD06F00046B1
:1006C00046EA010140EA020081EA0301B4EB5C045E
:1006D000C2BFD4EB0C0541EA045170BD41F4801156
:1006E0004FF0000E013C00F3AB8014F1360FDEBF7B
:1006F000002001F0004170BDC4F10004203C35DA57
:100700000C341BDC04F11404C4F1200500FA05F3D9
:1007100020FA04F001FA05F240EA020001F000427A
:1007200021F0004110EBD37021FA04F642EB0601F0
:100730005EEA430E08BF20EAD37070BDC4F10C041A
:10074000C4F1200500FA04F320FA05F001FA04F2DE
:1007500040EA020001F0004110EBD37041F10001CA
:100760005EEA430E08BF20EAD37070BDC4F12005D5
:1007700000FA05F24EEA020E20FA04F301FA05F23D
:1007800043EA020321FA04F001F0004121FA04F2E5
:1007900020EA020000EBD3705EEA430E08BF20EAB5
:1007A000D37070BD94F0000F0FD101F000464000EF
:1007B00041EB010111F4801F08BF013CF7D041EA71
:1007C000060195F0000F18BF704703F00046520075
:1007D00043EB030313F4801F08BF013DF7D043EA46
:1007E0000603704794EA0C0F0CEA135518BF95EAFC
:1007F0000C0F0CD050EA410618BF52EA4306D1D183
:1008000081EA030101F000414FF0000070BD50EAA1
:10081000410606BF1046194652EA430619D094EA2B
:100820000C0F02D150EA013613D195EA0C0F05D115
:1008300052EA03361CBF104619460AD181EA030169
:1008400001F0004141F0FE4141F470014FF0000021
:1008500070BD41F0FE4141F4780170BD70B54FF0BC
:10086000FF0C4CF4E06C1CEA11541DBF1CEA13553C
:1008700094EA0C0F95EA0C0F00F0A7F8A4EB05041E
:1008800081EA030E52EA03354FEA013100F0888015
:100890004FEA03334FF0805545EA131343EA1263DE
:1008A0004FEA022245EA111545EA10654FEA002693
:1008B0000EF000419D4208BF964244F1FD0404F54C
:1008C000407402D25B084FEA3202B61A65EB0305A8
:1008D0005B084FEA32024FF480104FF4002CB6EB65
:1008E000020E75EB030E22BFB61A754640EA0C00E5
:1008F0005B084FEA3202B6EB020E75EB030E22BF25
:10090000B61A754640EA5C005B084FEA3202B6EB65
:10091000020E75EB030E22BFB61A754640EA9C0024
:100920005B084FEA3202B6EB020E75EB030E22BFF4
:10093000B61A754640EADC0055EA060E18D04FEAB2
:10094000051545EA16754FEA06164FEAC30343EA52
:1009500052734FEAC2025FEA1C1CC0D111F4801F1F
:100960000BD141EA00014FF000004FF0004CB6E718
:1009700011F4801F04BF01430020B4F1FD0C88BFB7
:10098000BCF5E06F3FF6AFAEB5EB030C04BFB6EBC2
:10099000020C5FEA500C50F1000041EB045170BDB5
:1009A0000EF0004E4EEA113114EB5C04C2BFD4EBE2
:1009B0000C0541EA045170BD41F480114FF0000E66
:1009C000013C90E645EA060E8DE60CEA135594EAE2
:1009D0000C0F08BF95EA0C0F3FF43BAF94EA0C0FE5
:1009E0000AD150EA01347FF434AF95EA0C0F7FF45A
:1009F00025AF104619462CE795EA0C0F06D152EAAE
:100A000003353FF4FDAE1046194622E750EA410691
:100A100018BF52EA43067FF4C5AE50EA41047FF4A2
:100A20000DAF52EA43057FF4EBAE12E74FF0FF3C07
:100A300006E000BF4FF0010C02E000BF4FF0010CD8
:100A40004DF804CD4FEA410C7FEA6C5C4FEA430C51
:100A500018BF7FEA6C5C1BD001B050EA410C0CBFA0
:100A600052EA430C91EA030F02BF90EA020F002002
:100A7000704710F1000F91EA030F58BF994208BF69
:100A800090422CBFD8176FEAE37040F00100704726
:100A90004FEA410C7FEA6C5C02D150EA013C07D17D
:100AA0004FEA430C7FEA6C5CD6D152EA033CD3D0C8
:100AB0005DF8040B704700BF8446104662468C46C2
:100AC0001946634600E000BF01B5FFF7B7FF0028F5
:100AD00048BF10F1000F01BD4DF808EDFFF7F4FF1E
:100AE0000CBF012000205DF808FB00BF4DF808EDA9
:100AF000FFF7EAFF34BF012000205DF808FB00BFCC
:100B00004DF808EDFFF7E0FF94BF012000205DF8ED
:100B100008FB00BF4DF808EDFFF7CEFF94BF0120A2
:100B200000205DF808FB00BF4DF808EDFFF7C4FF9B
:100B300034BF012000205DF808FB00BF4FEA410CE4
:100B40007FEA6C5C02D150EA013C0AD14FEA430CC7
:100B50007FEA6C5C02D152EA033C02D14FF0000004
:100B600070474FF0010070474A0011D212F5001291
:100B700011D20DD56FF47873B3EB62520ED44FEAF5
:100B8000C12343F0004343EA505323FA02F0704775
:100B90004FF00000704750EA013002D14FF0FF30B3
:100BA00070474FF0000070474FEA4102B2F1E04356
:100BB00024BFB3F5001CDCF1FE5C0DD901F0004C44
:100BC0004FEAC0024CEA5070B2F1004F40EB830094
:100BD00008BF20F00100704711F0804F21D113F1C0
:100BE0003872BCBF01F00040704741F480114FEAF9
:100BF0005252C2F11802C2F1200C10FA0CF320FA82
:100C000002F018BF40F001004FEAC1234FEAD3239E
:100C100003FA0CFC40EA0C0023FA02F34FEA430308
:100C2000CCE77FEA625307D150EA01331EBF4FF091
:100C3000FE4040F44000704701F0004040F0FE40AC
:100C400040F40000704700BF53B94AB9002908BFFB
:100C500000281CBF4FF0FF314FF0FF3000F074B997
:100C6000ADF1080C6DE904CE00F006F8DDF804E003
:100C7000DDE9022304B070472DE9F047089D0446E2
:100C80008E46002B4DD18A42944669D9B2FA82F23F
:100C900052B101FA02F3C2F1200120FA01F10CFA7B
:100CA00002FC41EA030E94404FEA1C48210CBEFBB3
:100CB000F8F61FFA8CF708FB16E341EA034306FB3C
:100CC00007F199420AD91CEB030306F1FF3080F0CB
:100CD0001F81994240F21C81023E63445B1AA4B218
:100CE000B3FBF8F008FB103344EA034400FB07F7BA
:100CF000A7420AD91CEB040400F1FF3380F00A81FB
:100D0000A74240F207816444023840EA0640E41BEF
:100D100000261DB1D4400023C5E900433146BDE89B
:100D2000F0878B4209D9002D00F0EF800026C5E93D
:100D3000000130463146BDE8F087B3FA83F6002E55
:100D40004AD18B4202D3824200F2F980841A61EBCD
:100D5000030301209E46002DE0D0C5E9004EDDE7EB
:100D600002B9FFDEB2FA82F2002A40F09280A1EBD3
:100D70000C014FEA1C471FFA8CFE0126200CB1FB28
:100D8000F7F307FB131140EA01410EFB03F0884221
:100D900008D91CEB010103F1FF3802D2884200F2AE
:100DA000CB804346091AA4B2B1FBF7F007FB101140
:100DB00044EA01440EFB00FEA64508D91CEB0404DE
:100DC00000F1FF3102D2A64500F2BB800846A4EB39
:100DD0000E0440EA03409CE7C6F12007B34022FA24
:100DE00007FC4CEA030C20FA07F401FA06F31C4353
:100DF000F9404FEA1C4900FA06F3B1FBF9F8200C60
:100E00001FFA8CFE09FB181140EA014108FB0EF0A5
:100E1000884202FA06F20BD91CEB010108F1FF3AF5
:100E200080F08880884240F28580A8F10208614401
:100E3000091AA4B2B1FBF9F009FB101144EA01410F
:100E400000FB0EFE8E4508D91CEB010100F1FF34BA
:100E50006CD28E456AD90238614440EA0840A0FB52
:100E60000294A1EB0E01A142C846A64656D353D028
:100E70005DB1B3EB080261EB0E0101FA07F722FA4C
:100E800006F3F1401F43C5E9007100263146BDE875
:100E9000F087C2F12003D8400CFA02FC21FA03F3D8
:100EA000914001434FEA1C471FFA8CFEB3FBF7F059
:100EB00007FB10360B0C43EA064300FB0EF69E427E
:100EC00004FA02F408D91CEB030300F1FF382FD217
:100ED0009E422DD9023863449B1B89B2B3FBF7F6BF
:100EE00007FB163341EA034106FB0EF38B4208D998
:100EF0001CEB010106F1FF3816D28B4214D9023ED9
:100F00006144C91A46EA004638E72E46284605E7F6
:100F10000646E3E61846F8E64B45A9D2B9EB0208C7
:100F200064EB0C0E0138A3E74646EAE7204694E757
:100F30004046D1E7D0467BE7023B614432E730468A
:100F400009E76444023842E7704700BF80B500AF4C
:100F500002480BF00FF800BF80BD00BF1809002049
:100F600080B400AF034B1B685B6A1846BD465DF852
:100F7000047B70471809002080B582B000AF784B21
:100F80001B680AF041FF00F061F900F0D3FB00F0AC
:100F9000A9FB00F07DFB00F0C1F900F0B3FA00F00E
:100FA0000FFA00F0FDFA00216E480BF0F9F8042169
:100FB0006D480BF0F5F804F087FA6C4A0121012026
:100FC00004F06EFE03466A4A13606A4A012101205A
:100FD00004F066FE0346684A1360684A0121012056
:100FE00004F05EFE0346664A1360664A0121012052
:100FF00004F056FE0346644A1360644A012101204E
:1010000004F04EFE0346624A1360624B0022012147
:10101000614804F07FFC0346604A1360604B002285
:101020000121604804F076FC03465F4A13605F4B81
:10103000002200215E4804F06DFC03465D4A136007
:101040005D4A0421042004F04BFF03465B4A136011
:101050005B4A0421042004F043FF0346594A13600D
:10106000594A0421042004F03BFF0346574A136009
:10107000574A0821082004F033FF0346554A1360FD
:10108000554A0321102004F02BFF0346534A1360F6
:10109000534A0021534804F061FA0346524A136050
:1010A000524A0021524804F059FA0346514A13604B
:1010B000514A0021514804F051FA0346504A136046
:1010C000504A0021504804F049FA03464F4A136041
:1010D0004F4A00214F4804F041FA03464E4A13603C
:1010E0004E4A00214E4804F039FA03464D4A136037
:1010F0004D4A00214D4804F031FA03464C4A136032
:101100004C4A00214C4804F029FA03464B4A13602C
:101110004B4804F0A9FC03464A4A136004F0F8F96E
:1011200000237B6014E000224FF4005146480AF08F
:1011300053F919200AF0AAFE01224FF40051424847
:101140000AF04AF932200AF0A1FE7B6801337B6085
:101150007B68072BE7D94FF448700AF097FEDFE76A
:1011600000000020D008002060090020A43D0108F4
:10117000C0440020B43D010814450020C43D0108CE
:1011800068450020D43D0108BC450020E43D01082D
:1011900010460020743D0108A113010830440020CE
:1011A000843D01081D0F010860440020943D0108A2
:1011B0008D0E010890440020FC3C0108EC41002009
:1011C000143D0108504200202C3D0108B44200208B
:1011D000443D0108184300205C3D0108AC43002059
:1011E000DC3B010865180008AC0A0020003C01083F
:1011F000A5070108140D0020243C0108C5040108BE
:101200007C150020483C0108890D0108E41D0020E0
:101210006C3C0108751001084C260020903C010828
:10122000B9130108B42E0020B43C010819150108B7
:101230001C370020D83C01085D13010884390020C8
:10124000F43D0108644600200008024080B594B0D7
:1012500000AF07F1200330220021184610F034FEC1
:1012600007F10C0300221A605A609A60DA601A6172
:101270000023BB60274B1B6C264A43F0805313644A
:10128000244B1B6C03F08053BB60BB6800237B6066
:10129000214B1B68204A43F4404313601E4B1B68DC
:1012A00003F440437B607B6801233B624FF480334F
:1012B0007B620223BB634FF48003FB6319233B640F
:1012C000C0237B640223BB640423FB6407F1200377
:1012D000184609F073FA0346002B01D000F0DEFA3D
:1012E0000F23FB6002233B6100237B614FF480539B
:1012F000BB610023FB6107F10C030321184609F0D1
:10130000D5FC0346002B01D000F0C8FA00BF5037CF
:10131000BD4680BD003802400070004080B584B0FA
:1013200000AF3B4600221A605A609A60DA60214B97
:10133000214A1A601F4B4FF480325A601D4B002225
:101340009A601C4B00221A611A4B00221A76194B24
:10135000002283F82020174B0022DA62154B174A2F
:101360009A62144B0022DA60124B0122DA61114BAF
:10137000002283F830200F4B01225A610D4810F0F3
:1013800085F90346002B01D000F088FA00233B606A
:1013900001237B600023BB603B461946054810F0E3
:1013A00005FB0346002B01D000F078FA00BF103790
:1013B000BD4680BD88080020002001400100000FCC
:1013C00080B596B000AF07F1480300221A605A605A
:1013D0009A60DA6007F1400300221A605A6007F150
:1013E000240300221A605A609A60DA601A615A6116
:1013F0009A613B1D20220021184610F065FD3F4BED
:101400003F4A1A603D4B00225A603C4B00229A60D2
:101410003A4B42F27F52DA60384B00221A61374B66
:1014200000225A61354B00229A6134480AF052FD7D
:101430000346002B01D000F031FA4FF48053BB6417
:1014400007F1480319462D480BF024F90346002BF9
:1014500001D000F023FA29480AF048FE0346002B89
:1014600001D000F01BFA00233B6400237B6407F1EA
:101470004003194621480BF0C9FC0346002B01D05C
:1014800000F00CFA60237B6242F27F53BB620023C0
:10149000FB6200233B6300237B630023BB630023C9
:1014A000FB6307F124030022194614480BF030F8BF
:1014B0000346002B01D000F0F1F900237B600023EC
:1014C000BB600023FB6000233B6100237B614FF482
:1014D0000053BB6100233B623B1D194607480BF0DC
:1014E00003FD0346002B01D000F0D8F9034800F0BB
:1014F000E9FA00BF5837BD4680BD00BFD0080020C4
:101500000000014080B586B000AF07F1080300225B
:101510001A605A609A60DA603B4600221A605A608C
:101520001E4B4FF080421A601C4B42F27F525A60B1
:101530001A4B00229A60194B4FF0FF32DA60174BBA
:1015400000221A61154B00229A6114480AF0C2FC6D
:101550000346002B01D000F0A1F94FF48053BB608B
:1015600007F1080319460D480BF094F80346002BC9
:1015700001D000F093F900233B6000237B603B46E1
:10158000194606480BF042FC0346002B01D000F040
:1015900085F900BF1837BD4680BD00BF180900207F
:1015A00080B58EB000AF07F1280300221A605A60A0
:1015B0009A60DA6007F1200300221A605A603B1D2E
:1015C00000221A605A609A60DA601A615A619A6160
:1015D0002D4B2E4A1A602C4B00225A602A4B0022B7
:1015E0009A60294B42F27F52DA60274B00221A613F
:1015F000254B00229A6124480AF06CFC0346002B1C
:1016000001D000F04BF94FF48053BB6207F128037F
:1016100019461D480BF03EF80346002B01D000F0A0
:101620003DF919480AF062FD0346002B01D000F095
:1016300035F900233B6200237B6207F12003194642
:1016400011480BF0E3FB0346002B01D000F026F914
:1016500060237B6042F27F53BB600023FB6000236A
:101660007B613B1D0422194607480AF051FF0346DF
:10167000002B01D000F012F9034800F023FA00BF5C
:101680003837BD4680BD00BF60090020000400401F
:1016900080B500AF114B124A1A60104B4FF416522E
:1016A0005A600E4B00229A600C4B0022DA600B4B02
:1016B00000221A61094B0C225A61084B00229A61E0
:1016C000064B0022DA6105480BF074FC0346002B40
:1016D00001D000F0E3F800BF80BD00BFA8090020E2
:1016E0000010014080B582B000AF00237B60104B3A
:1016F0001B6B0F4A43F4800313630D4B1B6B03F406
:1017000080037B607B68002205213A200AF052FBAF
:101710003A200AF06BFB0022052146200AF04AFB22
:1017200046200AF063FB00BF0837BD4680BD00BFFE
:101730000038024080B58AB000AF07F114030022E0
:101740001A605A609A60DA601A6100233B61414B6B
:101750001B6B404A43F0040313633E4B1B6B03F0C7
:1017600004033B613B690023FB603A4B1B6B394A26
:1017700043F080031363374B1B6B03F08003FB6064
:10178000FB680023BB60334B1B6B324A43F0010301
:101790001363304B1B6B03F00103BB60BB6800237A
:1017A0007B602C4B1B6B2B4A43F002031363294BCA
:1017B0001B6B03F002037B607B6800224FF4005137
:1017C000254809F009FE00221E21244809F004FEE4
:1017D00001224021214809F0FFFD002242F20401CC
:1017E0001F4809F0F9FD01224FF480511C4809F00F
:1017F000F3FD4FF400537B610123BB610023FB61C8
:1018000000233B6207F114031946134809F060FCFA
:101810005E237B610123BB610023FB6100233B62EC
:1018200007F1140319460D4809F052FC43F2040372
:101830007B610123BB610023FB6100233B6207F155
:1018400014031946064809F043FC00BF2837BD467B
:1018500080BD00BF00380240000802400000024086
:101860000004024080B582B000AF786005F0F0FB64
:10187000012004F01EF8FBE780B582B000AF78606D
:101880007B681B68044A934201D10AF0DFFA00BF6B
:101890000837BD4680BD00BF0048014080B400AF9E
:1018A00072B600BFFEE780B400AFFEE780B400AFC1
:1018B000FEE780B400AFFEE780B400AFFEE780B47F
:1018C00000AFFEE780B400AF00BFBD465DF8047B0B
:1018D0007047000080B500AF03480AF011FD0348CF
:1018E0000AF00EFD00BF80BDD00800208846002011
:1018F00080B500AF02480BF08FFC00BF80BD00BF79
:10190000A809002080B500AF024809F031FF00BFF0
:1019100080BD00BFEC09002080B500AF024806F092
:10192000D1F900BF80BD00BF2071002080B500AF9D
:10193000024809F01DFF00BF80BD00BF4C0A002017
:1019400080B582B000AF00237B60124B5B6C114A04
:1019500043F4804353640F4B5B6C03F480437B6020
:101960007B6800233B600B4B1B6C0A4A43F080539F
:101970001364084B1B6C03F080533B603B680022F0
:101980000F216FF001000AF015FA00BF0837BD46BD
:1019900080BD00BF0038024080B58AB000AF7860DB
:1019A00007F1140300221A605A609A60DA601A6123
:1019B0007B681B68174A934227D100233B61164B73
:1019C0005B6C154A43F480735364134B5B6C03F4F4
:1019D00080733B613B690023FB600F4B1B6B0E4A1E
:1019E00043F0010313630C4B1B6B03F00103FB601B
:1019F000FB6801237B610323BB610023FB6107F1CB
:101A000014031946054809F063FB00BF2837BD469B
:101A100080BD00BF002001400038024000000240AD
:101A200080B586B000AF78607B681B68224A93421D
:101A300016D100237B61214B5B6C204A43F00103EC
:101A400053641E4B5B6C03F001037B617B690022D6
:101A500005211A200AF0AEF91A200AF0C7F926E08B
:101A60007B681B68B3F1804F0ED100233B61134BA1
:101A70001B6C124A43F001031364104B1B6C03F000
:101A800001033B613B6912E07B681B680C4A93428F
:101A90000DD10023FB60094B1B6C084A43F0020385
:101AA0001364064B1B6C03F00203FB60FB6800BF72
:101AB0001837BD4680BD00BF00000140003802401D
:101AC0000004004080B58AB000AF786007F11403CD
:101AD00000221A605A609A60DA601A617B681B689B
:101AE000244A93421FD100233B61234B1B6B224AA4
:101AF00043F001031363204B1B6B03F001033B61B5
:101B00003B694FF480737B610223BB610023FB615F
:101B100000233B6201237B6207F114031946174837
:101B200009F0D6FA22E07B681B68154A93421DD162
:101B30000023FB60104B1B6B0F4A43F00103136340
:101B40000D4B1B6B03F00103FB60FB6880237B6183
:101B50000223BB610023FB6100233B6202237B6203
:101B600007F114031946054809F0B2FA00BF2837F7
:101B7000BD4680BD00000140003802400000024028
:101B80000004004080B58AB000AF786007F114030C
:101B900000221A605A609A60DA601A617B681B68DA
:101BA0004C4A934240F0918000233B614A4B5B6C6E
:101BB000494A43F010035364474B5B6C03F0100336
:101BC0003B613B690023FB60434B1B6B424A43F084
:101BD00001031363404B1B6B03F00103FB60FB68C5
:101BE0004FF4C0637B610223BB610023FB610323CD
:101BF0003B6207237B6207F114031946374809F05B
:101C000067FA374B374A1A60354B4FF000625A601B
:101C1000334B00229A60324B0022DA60304B4FF493
:101C200080621A612E4B00225A612D4B00229A616C
:101C30002B4B0022DA612A4B00221A62284B002229
:101C40005A62274809F0FCFB0346002B01D0FFF73E
:101C500025FE7B68224A9A63214A7B689363224B64
:101C6000224A1A60204B4FF000625A601E4B4022FD
:101C70009A601D4B0022DA601B4B4FF480621A61A0
:101C8000194B00225A61184B00229A61164B002210
:101C9000DA61154B00221A62134B00225A62124875
:101CA00009F0CEFB0346002B01D0FFF7F7FD7B6860
:101CB0000D4A5A630C4A7B68936300220521252054
:101CC0000AF078F825200AF091F800BF2837BD46C1
:101CD00080BD00BF001001400038024000000240FB
:101CE000EC090020406402404C0A0020B864024025
:101CF00080B483B000AF786000BF0C37BD465DF89C
:101D0000047B704780B483B000AF786000BF0C37AD
:101D1000BD465DF8047B704780B58CB000AF78603D
:101D20000023BB6200237B620023BB602E4B5B6CF5
:101D30002D4A43F4802353642B4B5B6C03F48023C4
:101D4000BB60BB6807F10C0207F11003114618468F
:101D500009F08CF909F076F9B862BB6A234AA2FB54
:101D600003239B0C013B7B62214B224A1A60204BD0
:101D700040F2E732DA601E4A7B6A53601C4B002255
:101D80001A611B4B00229A60194B00229A61184875
:101D90000AF0A0F8034687F82F3097F82F30002B71
:101DA0001BD113480AF040F9034687F82F3097F803
:101DB0002F30002B11D11A200AF018F87B680F2B56
:101DC00008D8002279681A2009F0F4FF0A4A7B68D3
:101DD000136002E0012387F82F3097F82F30184660
:101DE0003037BD4680BD00BF0038024083DE1B4354
:101DF00088460020004801406C00002080B586B075
:101E000000AF78607B68002B0AD14FF0500383F35A
:101E10001188BFF36F8FBFF34F8F3B6100BFFEE7A9
:101E20002023BB60BB68202B0AD04FF0500383F304
:101E30001188BFF36F8FBFF34F8FFB6000BFFEE7CA
:101E40007B687B617B69002B0AD07B6900221A606A
:101E50007B690433184600F03DFA7B6901221A774A
:101E60007B6918461837BD4680BD80B582B000AF8B
:101E7000202004F0CDFB78607B68002B0AD07B68C3
:101E800000221A607B680433184600F023FA7B684E
:101E900000221A777B6818460837BD4680BD0000CF
:101EA00080B590B000AFF860B9607A603B60FB68C5
:101EB0007B630023BB6300233B63FB68002B0AD1D9
:101EC0004FF0500383F31188BFF36F8FBFF34F8F31
:101ED0003B6200BFFEE7BB6803F07F43002B0AD0E4
:101EE0004FF0500383F31188BFF36F8FBFF34F8F11
:101EF000FB6100BFFEE7BB68002B0AD14FF0500327
:101F000083F31188BFF36F8FBFF34F8FBB6100BFA7
:101F1000FEE702F087FA0346002B02D1BB6C002BD0
:101F200001D1012300E00023002B0AD14FF0500320
:101F300083F31188BFF36F8FBFF34F8F7B6100BFB7
:101F4000FEE701F009FD7B6B1B68FB623A68B9682C
:101F5000F86A00F088F9B862BB6A002B0ED0FB6A01
:101F6000FB630023BB647B68002B28D07B6B1A6863
:101F7000BB68DB431A407B6B1A6020E0BB6C002B14
:101F800004D1FB6AFB6301233B6318E07B68002BF1
:101F900003D0BB6B43F08073BB633B68002B03D063
:101FA000BB6B43F08063BB637B6B181DBA68BB6B74
:101FB0001343BA6C194601F043FF0023FB6301F0A1
:101FC00011FD7862BB6C002B31D07B6A002B07D1EE
:101FD000194B4FF080521A60BFF34F8FBFF36F8FD2
:101FE00002F096FBF863FB6B03F00073002B1AD131
:101FF00004F028FE7B6B1B68FB633A68B968F86BDA
:1020000000F031F90346002B09D07B68002B06D085
:102010007B6B1A68BB68DB431A407B6B1A60012339
:102020003B6304F03FFEFB6B23F07F43FB63FB6BE2
:1020300018464037BD4680BD04ED00E080B586B04F
:1020400000AF786039607B687B617B68002B0AD1C8
:102050004FF0500383F31188BFF36F8FBFF34F8F9F
:10206000FB6000BFFEE73B6803F07F43002B0AD014
:102070004FF0500383F31188BFF36F8FBFF34F8F7F
:10208000BB6000BFFEE704F0DDFD7B691B683B61C0
:102090007B691A683B68DB431A407B691A6004F06D
:1020A00001FE3B6918461837BD4680BD80B584B037
:1020B00000AF7860396000233A687968044803F01B
:1020C0009FF9F860FB6818461037BD4680BD00BF19
:1020D0004D22000880B489B000AF78607B68FB6156
:1020E000EFF311824FF0500383F31188BFF36F8F2A
:1020F000BFF34F8FFA60BB60FB68BB61FB691B6875
:102100007B61BB693B613B6983F3118800BF7B69DD
:1021100018462437BD465DF8047B704780B58EB005
:1021200000AF7860396000233B637B68BB620023AB
:10213000FB627B68002B0AD14FF0500383F31188B8
:10214000BFF36F8FBFF34F8F3B6100BFFEE73B686C
:1021500003F07F43002B0AD04FF0500383F3118824
:10216000BFF36F8FBFF34F8FFB6000BFFEE7BB6A0B
:1021700004337B627B6A08333B6201F0EDFB7B6AD0
:10218000DB687B63BB6A1A683B681A43BB6A1A60E8
:102190003CE07B6B5B68FB617B6B1B68BB61002376
:1021A000FB62BB6903F07F437B61BB6923F07F4324
:1021B000BB617B6903F08063002B08D1BB6A1A689E
:1021C000BB691340002B0BD00123FB6208E0BB6A04
:1021D0001A68BB691340BA699A4201D10123FB62B4
:1021E000FB6A002B10D07B6903F08073002B03D0B7
:1021F0003A6BBB6913433B63BB6A1B6843F00073D4
:102200001946786B01F0EAFEFB697B637A6B3B6AE7
:102210009A42BED1BB6A1A683B6BDB431A40BB6A69
:102220001A6001F0DFFBBB6A1B6818463837BD46F1
:1022300080BD80B582B000AF786039603968786859
:10224000FFF76CFF00BF0837BD4680BD80B582B088
:1022500000AF7860396039687868FFF7EFFE00BF3B
:102260000837BD4680BD80B487B000AFF860B96064
:102270007A6000237B617B68002B07D1FA68BB681A
:102280001340002B0AD001237B6107E0FA68BB688A
:102290001340BA689A4201D101237B617B691846D9
:1022A0001C37BD465DF8047B7047000080B586B0E2
:1022B00000AFF860B9607A607B68BA68F968044872
:1022C00003F09EF878617B6918461837BD4680BDDB
:1022D0003322000880B483B000AF78607B6803F1DC
:1022E00008027B685A607B684FF0FF329A607B6817
:1022F00003F108027B68DA607B6803F108027B68FF
:102300001A617B6800221A6000BF0C37BD465DF879
:10231000047B704780B483B000AF78607B68002294
:102320001A6100BF0C37BD465DF8047B704780B46E
:1023300085B000AF786039607B685B68FB603B68A4
:10234000FA685A60FB689A683B689A60FB689B6809
:102350003A685A60FB683A689A603B687A681A6122
:102360007B681B685A1C7B681A6000BF1437BD4627
:102370005DF8047B704780B485B000AF7860396049
:102380003B681B68BB60BB68B3F1FF3F03D17B6850
:102390001B69FB600CE07B680833FB6002E0FB68B4
:1023A0005B68FB60FB685B681B68BA689A42F6D2A0
:1023B000FB685A683B685A603B685B683A689A6099
:1023C0003B68FA689A60FB683A685A603B687A68CA
:1023D0001A617B681B685A1C7B681A6000BF14373F
:1023E000BD465DF8047B704780B485B000AF78606F
:1023F0007B681B69FB607B685B687A6892689A609F
:102400007B689B687A6852685A60FB685B687A6888
:102410009A4203D17B689A68FB685A607B68002205
:102420001A61FB681B685A1EFB681A60FB681B6810
:1024300018461437BD465DF8047B704780B584B0FC
:1024400000AF786039607B68FB60FB68002B0AD1C5
:102450004FF0500383F31188BFF36F8FBFF34F8F9B
:10246000BB6000BFFEE704F0EDFBFB681A68FB6889
:10247000DB6BF968096C01FB03F31A44FB689A6093
:10248000FB6800229A63FB681A68FB685A60FB6865
:102490001A68FB68DB6B013BF968096C01FB03F30D
:1024A0001A44FB68DA60FB68FF2283F84420FB686B
:1024B000FF2283F845203B68002B14D1FB681B6981
:1024C000002B1AD0FB681033184601F021FD03469B
:1024D000002B12D00C4B4FF080521A60BFF34F8F7D
:1024E000BFF36F8F09E0FB6810331846FFF7F2FE69
:1024F000FB6824331846FFF7EDFE04F0D3FB0123FD
:1025000018461037BD4680BD04ED00E080B58EB0A2
:1025100002AFF860B9607A603B60FB68002B0AD1BB
:102520004FF0500383F31188BFF36F8FBFF34F8FCA
:10253000BB6200BFFEE73B68002B0AD14FF050039F
:1025400083F31188BFF36F8FBFF34F8F7B6200BFA0
:10255000FEE77B68002B02D0BB68002B01D0012373
:1025600000E00023002B0AD14FF0500383F31188C1
:10257000BFF36F8FBFF34F8F3B6200BFFEE77B68F7
:10258000002B02D1BB68002B01D1012300E0002306
:10259000002B0AD14FF0500383F31188BFF36F8FE4
:1025A000BFF34F8FFB6100BFFEE750237B617B6968
:1025B000502B0AD04FF0500383F31188BFF36F8F75
:1025C000BFF34F8FBB6100BFFEE77B693B68FB62D7
:1025D000FB6A002B0DD0FB6A012283F8462097F896
:1025E0003820FB6A009313467A68B968F86800F0EF
:1025F0003FF8FB6A18463037BD4680BD80B58AB0CB
:1026000002AFF860B9601346FB71FB68002B0AD17A
:102610004FF0500383F31188BFF36F8FBFF34F8FD9
:102620003B6100BFFEE7FB68BA6802FB03F3FB6196
:10263000FB695033184603F0EBFFB861BB69002B10
:1026400011D0BB697B617B6950337B61BB69002220
:1026500083F84620FA79BB69009313467A69B96812
:10266000F86800F005F8BB6918462037BD4680BD04
:1026700080B584B000AFF860B9607A60FB70BB6869
:10268000002B03D1BB69BA691A6002E0BB697A68A2
:102690001A60BB69FA68DA63BB69BA681A64012117
:1026A000B869FFF7CBFEBB69FA7883F84C2000BF0E
:1026B0001037BD4680BD80B58AB002AFF860B96002
:1026C0007A60FB68002B0AD14FF0500383F3118826
:1026D000BFF36F8FBFF34F8FBB6100BFFEE7BA68D8
:1026E000FB689A420AD94FF0500383F31188BFF375
:1026F0006F8FBFF34F8F7B6100BFFEE70223009314
:102700007B6800220021F868FFF700FFF861FB6991
:10271000002B02D0FB69BA689A63FB691846203720
:10272000BD4680BD80B586B000AF786039607B68FB
:10273000002B0AD14FF0500383F31188BFF36F8F42
:10274000BFF34F8F3B6100BFFEE73A687B689A4258
:102750000AD94FF0500383F31188BFF36F8FBFF393
:102760004F8FFB6000BFFEE7022200217868FFF771
:1027700045FF78617B69002B02D07B693A689A63D8
:102780007B6918461837BD4680BD000080B58EB005
:1027900000AFF860B9607A603B6000237B63FB6840
:1027A0003B633B6B002B0AD14FF0500383F311883E
:1027B000BFF36F8FBFF34F8FBB6200BFFEE7BB68F5
:1027C000002B03D13B6B1B6C002B01D1012300E0DC
:1027D0000023002B0AD14FF0500383F31188BFF37D
:1027E0006F8FBFF34F8F7B6200BFFEE73B68022B0A
:1027F00003D13B6BDB6B012B01D1012300E00023F4
:10280000002B0AD14FF0500383F31188BFF36F8F71
:10281000BFF34F8F3B6200BFFEE701F003FE0346AC
:10282000002B02D17B68002B01D1012300E00023A3
:10283000002B0AD14FF0500383F31188BFF36F8F41
:10284000BFF34F8FFB6100BFFEE704F0FBF93B6B6A
:102850009A6B3B6BDB6B9A4202D33B68022B29D10C
:102860003A68B968386B00F09AFCF8623B6B5B6AB7
:10287000002B10D03B6B2433184601F049FB034674
:10288000002B13D03F4B4FF080521A60BFF34F8F95
:10289000BFF36F8F0AE0FB6A002B07D0394B4FF074
:1028A00080521A60BFF34F8FBFF36F8F04F0FAF9B5
:1028B000012363E07B68002B03D104F0F3F90023CC
:1028C0005CE07B6B002B06D107F11403184601F086
:1028D000E9FB01237B6304F0E5F901F03DF804F026
:1028E000B1F93B6B93F844305BB2B3F1FF3F03D1D6
:1028F0003B6B002283F844203B6B93F845305BB27E
:10290000B3F1FF3F03D13B6B002283F8452004F075
:10291000C9F93A1D07F114031146184601F0D8FB16
:102920000346002B24D1386B00F031FD0346002B09
:1029300018D03B6B10337A681146184601F05CFAE8
:10294000386B00F0BCFC01F04DF80346002B7FF41F
:102950007CAF0C4B4FF080521A60BFF34F8FBFF328
:102960006F8F72E7386B00F0AAFC01F03BF86CE760
:10297000386B00F0A4FC01F035F800231846383716
:10298000BD4680BD04ED00E080B590B000AFF860BA
:10299000B9607A603B60FB68BB63BB6B002B0AD1FC
:1029A0004FF0500383F31188BFF36F8FBFF34F8F46
:1029B000BB6200BFFEE7BB68002B03D1BB6B1B6C87
:1029C000002B01D1012300E00023002B0AD14FF09E
:1029D000500383F31188BFF36F8FBFF34F8F7B6278
:1029E00000BFFEE73B68022B03D1BB6BDB6B012B07
:1029F00001D1012300E00023002B0AD14FF0500346
:102A000083F31188BFF36F8FBFF34F8F3B6200BF1B
:102A1000FEE704F0DDFAEFF311824FF0500383F389
:102A20001188BFF36F8FBFF34F8FFA61BB61FB69F2
:102A30007B63BB6B9A6BBB6BDB6B9A4202D33B68CD
:102A4000022B2FD1BB6B93F8453087F83330BB6B2B
:102A50009B6BFB623A68B968B86B00F0A0FB97F912
:102A60003330B3F1FF3F12D1BB6B5B6A002B16D042
:102A7000BB6B2433184601F04BFA0346002B0ED0F3
:102A80007B68002B0BD07B6801221A6007E097F867
:102A900033300133DBB25AB2BB6B83F845200123DC
:102AA000FB6301E00023FB637B6B7B617B6983F34A
:102AB000118800BFFB6B18464037BD4680BD80B50E
:102AC0008EB000AF786039607B683B633B6B002B56
:102AD0000AD14FF0500383F31188BFF36F8FBFF318
:102AE0004F8F3B6200BFFEE73B6B1B6C002B0AD095
:102AF0004FF0500383F31188BFF36F8FBFF34F8FF5
:102B0000FB6100BFFEE73B6B1B68002B03D13B6BF7
:102B10009B68002B01D1012300E00023002B0AD188
:102B20004FF0500383F31188BFF36F8FBFF34F8FC4
:102B3000BB6100BFFEE704F04BFAEFF311824FF0E8
:102B4000500383F31188BFF36F8FBFF34F8F7A6108
:102B50003B617B69FB623B6B9B6BBB623B6BDB6BE3
:102B6000BA6A9A422BD23B6B93F8453087F82730EC
:102B7000BB6A5A1C3B6B9A6397F92730B3F1FF3F4E
:102B800012D13B6B5B6A002B16D03B6B243318468B
:102B900001F0BEF90346002B0ED03B68002B0BD092
:102BA0003B6801221A6007E097F827300133DBB257
:102BB0005AB23B6B83F8452001237B6301E000237D
:102BC0007B63FB6AFB60FB6883F3118800BF7B6B50
:102BD00018463837BD4680BD80B58CB000AFF86070
:102BE000B9607A600023FB62FB68BB62BB6A002BA2
:102BF0000AD14FF0500383F31188BFF36F8FBFF3F7
:102C00004F8F3B6200BFFEE7BB68002B03D1BB6A5E
:102C10001B6C002B01D1012300E00023002B0AD103
:102C20004FF0500383F31188BFF36F8FBFF34F8FC3
:102C3000FB6100BFFEE701F0F5FB0346002B02D16C
:102C40007B68002B01D1012300E00023002B0AD177
:102C50004FF0500383F31188BFF36F8FBFF34F8F93
:102C6000BB6100BFFEE703F0EDFFBB6A9B6B7B62BD
:102C70007B6A002B1FD0B968B86A00F0FAFA7B6A49
:102C80005A1EBB6A9A63BB6A1B69002B0FD0BB6AD2
:102C90001033184601F03CF90346002B07D03D4B9A
:102CA0004FF080521A60BFF34F8FBFF36F8F03F066
:102CB000F9FF012369E07B68002B03D103F0F2FFE9
:102CC000002362E0FB6A002B06D107F110031846CF
:102CD00001F0E8F90123FB6203F0E4FF00F03CFEA1
:102CE00003F0B0FFBB6A93F844305BB2B3F1FF3F2F
:102CF00003D1BB6A002283F84420BB6A93F84530B5
:102D00005BB2B3F1FF3F03D1BB6A002283F84520D9
:102D100003F0C8FF3A1D07F110031146184601F0F1
:102D2000D7F90346002B23D1B86A00F01AFB0346FB
:102D3000002B17D0BB6A24337A681146184601F07D
:102D40005BF8B86A00F0BBFA00F04CFE0346002BBB
:102D500089D1104B4FF080521A60BFF34F8FBFF3F1
:102D60006F8F80E7B86A00F0AAFA00F03BFE7AE7BE
:102D7000B86A00F0A4FA00F035FEB86A00F0F1FA83
:102D80000346002B3FF46FAF002318463037BD4693
:102D900080BD00BF04ED00E080B58EB000AF78606C
:102DA000396000237B637B68FB6200233B63FB6A23
:102DB000002B0AD14FF0500383F31188BFF36F8FBC
:102DC000BFF34F8F3B6200BFFEE7FB6A1B6C002B1B
:102DD0000AD04FF0500383F31188BFF36F8FBFF316
:102DE0004F8FFB6100BFFEE701F01CFB0346002B89
:102DF00002D13B68002B01D1012300E00023002B0E
:102E00000AD14FF0500383F31188BFF36F8FBFF3E4
:102E10004F8FBB6100BFFEE703F014FFFB6A9B6BA3
:102E2000BB62BB6A002B24D0BB6A5A1EFB6A9A6342
:102E3000FB6A1B68002B04D101F082FC0246FB6A8E
:102E40009A60FB6A1B69002B0FD0FB6A103318468F
:102E500001F05EF80346002B07D0544B4FF0805230
:102E60001A60BFF34F8FBFF36F8F03F01BFF012377
:102E700097E03B68002B11D13B6B002B0AD04FF041
:102E8000500383F31188BFF36F8FBFF34F8F7B61C4
:102E900000BFFEE703F006FF002382E07B6B002B00
:102EA00006D107F10C03184601F0FCF801237B63FF
:102EB00003F0F8FE00F050FD03F0C4FEFB6A93F847
:102EC00044305BB2B3F1FF3F03D1FB6A002283F8C9
:102ED0004420FB6A93F845305BB2B3F1FF3F03D166
:102EE000FB6A002283F8452003F0DCFE3A4607F136
:102EF0000C031146184601F0EBF80346002B32D1C3
:102F0000F86A00F02EFA0346002B26D0FB6A1B68F5
:102F1000002B09D103F096FEFB6A9B68184601F06E
:102F20009FFA386303F0BEFEFB6A24333A68114609
:102F3000184600F061FFF86A00F0C1F900F052FD98
:102F40000346002B7FF468AF184B4FF080521A6095
:102F5000BFF34F8FBFF36F8F5EE7F86A00F0AFF9F2
:102F600000F040FD58E7F86A00F0A9F900F03AFDDA
:102F7000F86A00F0F6F90346002B3FF44DAF3B6BC7
:102F8000002B0DD003F05EFEF86A00F0F0F87862D6
:102F9000FB6A9B68796A184601F038FB03F082FEF1
:102FA000002318463837BD4680BD00BF04ED00E061
:102FB00080B58EB000AFF860B9607A60FB683B63A3
:102FC0003B6B002B0AD14FF0500383F31188BFF302
:102FD0006F8FBFF34F8F3B6200BFFEE7BB68002BD4
:102FE00003D13B6B1B6C002B01D1012300E00023BC
:102FF000002B0AD14FF0500383F31188BFF36F8F7A
:10300000BFF34F8FFB6100BFFEE703F0E1FFEFF37B
:1030100011824FF0500383F31188BFF36F8FBFF31A
:103020004F8FBA617B61BB69FB623B6B9B6BBB6281
:10303000BB6A002B2FD03B6B93F8443087F82730C6
:10304000B968386B00F015F9BB6A5A1E3B6B9A637E
:1030500097F92730B3F1FF3F12D13B6B1B69002B6F
:1030600016D03B6B1033184600F052FF0346002B7E
:103070000ED07B68002B0BD07B6801221A6007E022
:1030800097F827300133DBB25AB23B6B83F8442008
:1030900001237B6301E000237B63FB6A3B613B69A7
:1030A00083F3118800BF7B6B18463837BD4680BD5F
:1030B00080B584B000AF78607B68002B0AD14FF0F8
:1030C000500383F31188BFF36F8FBFF34F8FBB6043
:1030D00000BFFEE703F0B6FD7B689B6BFB6003F06F
:1030E000E1FDFB6818461037BD4680BD80B487B04F
:1030F00000AF78607B687B617B69002B0AD14FF061
:10310000500383F31188BFF36F8FBFF34F8FFB60C2
:1031100000BFFEE77B699B6B3B613B6918461C3730
:10312000BD465DF8047B704780B584B000AF786021
:103130007B68FB60FB68002B0AD14FF0500383F3E0
:103140001188BFF36F8FBFF34F8FBB6000BFFEE7E7
:10315000F86800F05FF9FB6893F84630002B02D165
:10316000F86803F021FB00BF1037BD4680BD80B476
:1031700085B000AF78607B685B6A002B06D07B6807
:103180001B6B1B68C3F13803FB6001E00023FB608D
:10319000FB6818461437BD465DF8047B704780B560
:1031A00086B000AFF860B9607A6000237B61FB688D
:1031B0009B6B3B61FB681B6C002B0DD1FB681B6894
:1031C000002B4DD1FB689B68184601F0B1F978617E
:1031D000FB6800229A6043E07B68002B19D1FB68F2
:1031E0005868FB681B6C1A46B9680EF05FFEFB68F6
:1031F0005A68FB681B6C1A44FB685A60FB685A6883
:10320000FB689B689A422BD3FB681A68FB685A607C
:1032100026E0FB68D868FB681B6C1A46B9680EF09C
:1032200045FEFB68DA68FB681B6C5B421A44FB686E
:10323000DA60FB68DA68FB681B689A4207D2FB68B1
:103240009A68FB681B6C5B421A44FB68DA607B6817
:10325000022B05D13B69002B02D03B69013B3B614E
:103260003B695A1CFB689A637B6918461837BD4650
:1032700080BD80B582B000AF786039607B681B6C20
:10328000002B18D07B68DA687B681B6C1A447B685B
:10329000DA607B68DA687B689B689A4203D37B6854
:1032A0001A687B68DA607B68D9687B681B6C1A4691
:1032B00038680EF0FBFD00BF0837BD4680BD80B505
:1032C00084B000AF786003F0BDFC7B6893F84530B4
:1032D000FB7311E07B685B6A002B12D07B682433A0
:1032E000184600F015FE0346002B01D000F052FFF7
:1032F000FB7B013BDBB2FB7397F90F30002BE9DC62
:1033000000E000BF7B68FF2283F8452003F0CAFC81
:1033100003F098FC7B6893F84430BB7311E07B6842
:103320001B69002B12D07B681033184600F0F0FDAB
:103330000346002B01D000F02DFFBB7B013BDBB22D
:10334000BB7397F90E30002BE9DC00E000BF7B680F
:10335000FF2283F8442003F0A5FC00BF1037BD46D0
:1033600080BD80B584B000AF786003F06BFC7B68F3
:103370009B6B002B02D10123FB6001E00023FB606B
:1033800003F090FCFB6818461037BD4680BD80B541
:1033900084B000AF786003F055FC7B689A6B7B6863
:1033A000DB6B9A4202D10123FB6001E00023FB604A
:1033B00003F078FCFB6818461037BD4680BD00005E
:1033C00080B485B000AF786039600023FB6014E002
:1033D0000F4AFB6852F83330002B0BD10C49FB68C5
:1033E0003A6841F833200A4AFB68DB0013447A68E4
:1033F0005A6006E0FB680133FB60FB68072BE7D9E6
:1034000000BF00BF1437BD465DF8047B704700BFA6
:10341000D046002080B485B000AF78600023FB6008
:1034200016E0104AFB68DB0013445B687A689A4236
:103430000BD10C4AFB68002142F83310094AFB68A3
:10344000DB00134400225A6006E0FB680133FB6096
:10345000FB68072BE5D900BF00BF1437BD465DF8F8
:10346000047B7047D046002080B586B000AFF8607E
:10347000B9607A60FB687B6103F0E4FB7B6993F8D9
:1034800044305BB2B3F1FF3F03D17B69002283F884
:1034900044207B6993F845305BB2B3F1FF3F03D121
:1034A0007B69002283F8452003F0FCFB7B699B6B62
:1034B000002B06D17B6924337A68B968184600F07E
:1034C000FBFC7869FFF7FBFE00BF1837BD4680BDE7
:1034D00080B58EB004AFF860B9607A603B607B6BFA
:1034E000002B0AD14FF0500383F31188BFF36F8F85
:1034F000BFF34F8F3B6200BFFEE7BB6B002B0AD1CF
:103500004FF0500383F31188BFF36F8FBFF34F8FDA
:10351000FB6100BFFEE764233B613B69642B0AD07B
:103520004FF0500383F31188BFF36F8FBFF34F8FBA
:10353000BB6100BFFEE73B69BB6B002B1ED07B6B02
:10354000002B1BD0BB6B7B627B6A7A6B1A637B6A36
:10355000022283F86120002303937B6A029307F120
:10356000140301933B6B00933B687A68B968F86871
:1035700000F050F8786A00F0E3F801E000237B6186
:103580007B6918462837BD4680BD80B58CB004AF36
:10359000F860B9603B601346FB80FB889B001846CF
:1035A00003F036F878617B69002B0ED0642003F0BD
:1035B0002FF8F861FB69002B03D0FB697A691A6365
:1035C00005E0786903F0F0F801E00023FB61FB6996
:1035D000002B17D0FB69002283F86120FA880023B2
:1035E0000393FB690293FB6A0193BB6A00933B68F8
:1035F000B968F86800F00EF8F86900F0A1F8012346
:10360000BB6102E04FF0FF33BB61BB691846203756
:10361000BD4680BD80B588B000AFF860B9607A6003
:103620003B603B6B186B7B689B001A46A5210EF034
:103630004BFC3B6B1A6B7B6803F18043013B9B00A7
:103640001344BB61BB6923F00703BB61BB6903F093
:103650000703002B0AD04FF0500383F31188BFF308
:103660006F8FBFF34F8F7B6100BFFEE73B6BBA6983
:103670005A64BB68002B1FD00023FB6112E0BA68BC
:10368000FB69134419783A6BFB69134434330A46D7
:103690001A70BA68FB6913441B78002B06D0FB69CB
:1036A0000133FB61FB690F2BE9D900E000BF3B6BE5
:1036B000002283F8432003E03B6B002283F8342090
:1036C000BB6A372B01D93723BB623B6BBA6ADA621C
:1036D0003B6BBA6A1A653B6B00225A653B6B04333D
:1036E0001846FEF717FE3B6B18331846FEF712FE1E
:1036F0003B6B3A6B1A61BB6AC3F138023B6B9A6150
:103700003B6B3A6B5A623B6B00229A653B6B002223
:10371000DA653B6B002283F860203A68F968B86983
:1037200003F060F902463B6B1A60FB6A002B02D083
:10373000FB6A3A6B1A6000BF2037BD4680BD0000AF
:1037400080B582B000AF786003F07CFA2D4B1B6827
:1037500001332C4A13602C4B1B68002B09D12A4AD9
:103760007B681360274B1B68012B10D100F08CFD88
:103770000DE0264B1B68002B09D1234B1B68DA6A2E
:103780007B68DB6A9A4202D81F4A7B681360204B31
:103790001B6801331E4A13601D4B1A687B689A64CC
:1037A0007B68DA6A1B4B1B689A4203D97B68DB6A29
:1037B000184A13607B68DA6A13469B0013449B0027
:1037C000154A1A447B68043319461046FEF7AFFDCC
:1037D00003F068FA0D4B1B68002B0ED00A4B1B68D8
:1037E000DA6A7B68DB6A9A4207D20C4B4FF0805250
:1037F0001A60BFF34F8FBFF36F8F00BF0837BD460E
:1038000080BD00BFE44B002010470020F04B00209B
:10381000004C0020EC4B00201447002004ED00E099
:1038200080B584B000AF78600023FB607B68002B1C
:1038300017D0134B1B68002B0AD04FF0500383F3B3
:103840001188BFF36F8FBFF34F8FBB6000BFFEE7E0
:1038500000F082F80021786801F076F900F0C2F8F3
:10386000F860FB68002B07D1064B4FF080521A60BE
:10387000BFF34F8FBFF36F8F00BF1037BD4680BDC2
:103880000C4C002004ED00E080B58AB004AF0023AA
:10389000BB6000237B603A46391D07F108031846D8
:1038A00002F082FE39687B68BA68029201930023B5
:1038B000009300230A4622492248FFF709FE0346E7
:1038C000214A1360204B1B68002B02D001237B612F
:1038D00001E000237B617B69012B02D101F088F9B3
:1038E00078617B69012B18D14FF0500383F3118865
:1038F000BFF36F8FBFF34F8F3B6100BF134B4FF090
:10390000FF321A60124B01221A60124B00221A6019
:10391000FDF71CFB03F0F4F80EE07B69B3F1FF3F09
:103920000AD14FF0500383F31188BFF36F8FBFF3B9
:103930004F8FFB6000BFFEE700BF1837BD4680BD5C
:10394000443B0108AD410008084C0020044C002015
:10395000F04B0020E84B002080B400AF044B1B6804
:103960000133034A136000BFBD465DF8047B704716
:103970000C4C002080B483B000AF00233B60144B9C
:103980001B68002B01D001233B60124B1B68DB6AD4
:10399000002B02D000237B6012E00F4B1B68012B31
:1039A00002D900237B600BE03B68002B02D0002390
:1039B0007B6005E0094B1A68094B1B68D31A7B60D2
:1039C0007B6818460C37BD465DF8047B704700BF26
:1039D000EC4B00201047002014470020044C00202E
:1039E000E84B002080B584B000AF0023FB600023CB
:1039F000BB60424B1B68002B0AD14FF0500383F38E
:103A00001188BFF36F8FBFF34F8F3B6000BFFEE79E
:103A100003F018F9394B1B68013B384A1360374BE8
:103A20001B68002B62D1364B1B68002B5ED02FE049
:103A3000344BDB68DB68FB60FB6818331846FEF725
:103A4000D3FCFB6804331846FEF7CEFCFB68DA6A49
:103A50002D4B1B689A4203D9FB68DB6A2A4A136024
:103A6000FB68DA6A13469B0013449B00274A1A44FA
:103A7000FB68043319461046FEF759FCFB68DA6A06
:103A8000234B1B68DB6A9A4202D3224B01221A6045
:103A90001C4B1B68002BCBD1FB68002B01D000F026
:103AA00091FC1D4B1B687B607B68002B10D000F0E5
:103AB0006FF80346002B02D0164B01221A607B6878
:103AC000013B7B607B68002BF1D1134B00221A6015
:103AD000104B1B68002B09D00123BB600F4B4FF02C
:103AE00080521A60BFF34F8FBFF36F8F03F0DAF885
:103AF000BB6818461037BD4680BD00BF0C4C002087
:103B0000E44B0020A44B0020EC4B00201447002085
:103B100010470020F84B0020F44B002004ED00E09B
:103B200080B483B000AF054B1B687B607B68184690
:103B30000C37BD465DF8047B704700BFE84B0020A2
:103B400080B485B000AF78600F4B1A687B681A4468
:103B50000E4B1B689A420AD94FF0500383F3118829
:103B6000BFF36F8FBFF34F8FFB6000BFFEE7064BC5
:103B70001A687B681344044A136000BF1437BD46BB
:103B80005DF8047B704700BFE84B0020044C002028
:103B900080B586B000AF00237B614F4B1B68002BC4
:103BA00040F08F804D4B1B6801333B614B4A3B69B2
:103BB00013603B69002B20D1494B1B681B68002B0D
:103BC0000AD04FF0500383F31188BFF36F8FBFF318
:103BD0004F8F3B6000BFFEE7414B1B68FB60414BD2
:103BE0001B683F4A13603F4AFB6813603E4B1B68EB
:103BF00001333D4A136000F0E5FB3C4B1B683A691A
:103C00009A4249D3364B1B681B68002B04D1374BB3
:103C10004FF0FF321A603FE0314B1B68DB68DB6816
:103C2000BB60BB685B687B603A697B689A4203D281
:103C30002E4A7B6813602FE0BB6804331846FEF7FA
:103C4000D3FBBB689B6A002B04D0BB6818331846B3
:103C5000FEF7CAFBBB68DA6A254B1B689A4203D998
:103C6000BB68DB6A224A1360BB68DA6A13469B00B2
:103C700013449B001F4A1A44BB680433194610467C
:103C8000FEF755FBBB68DA6A1B4B1B68DB6A9A427E
:103C9000B8D301237B61B5E7174B1B68DA6A154976
:103CA00013469B0013449B000B441B68012B01D956
:103CB00001237B61114B1B68002B07D001237B6123
:103CC00004E00F4B1B6801330D4A13607B691846F3
:103CD0001837BD4680BD00BF0C4C0020E84B0020CB
:103CE0009C4B0020A04B0020FC4B0020044C0020EB
:103CF000EC4B00201447002010470020F84B002018
:103D0000F44B002080B584B000AF344B1B68002B0F
:103D100003D0334B01221A605BE0314B00221A6062
:103D2000FDF71EF903461A462E4B1A602D4B1A68F2
:103D30002D4B1B689A4209D92C4B1B68996D294A57
:103D40001068294A1268821A0A449A65254B1B6832
:103D5000254A1360264B1B68FB6010E0FB68002BB4
:103D60000AD14FF0500383F31188BFF36F8FBFF375
:103D70004F8F7B6000BFFEE7FB68013BFB601D4986
:103D8000FA6813469B0013449B000B441B68002BEE
:103D9000E4D0FA6813469B0013449B00154A134471
:103DA000BB60BB685B685A68BB685A60BB685A688E
:103DB000BB6808339A4204D1BB685B685A68BB6829
:103DC0005A60BB685B68DB68084A1360084AFB6896
:103DD000136000BF1037BD4680BD00BF0C4C0020F3
:103DE000F84B0020144C0020104C002010470020FD
:103DF000EC4B00201447002080B584B000AF786001
:103E000039607B68002B0AD14FF0500383F311888F
:103E1000BFF36F8FBFF34F8FFB6000BFFEE7074B11
:103E20001B68183319467868FEF7A5FA012138682F
:103E300000F08AFE00BF1037BD4680BD104700204D
:103E400080B586B000AFF860B9607A60FB68002B7F
:103E50000AD14FF0500383F31188BFF36F8FBFF384
:103E60004F8F7B6100BFFEE7114B1B68002B0AD10F
:103E70004FF0500383F31188BFF36F8FBFF34F8F61
:103E80003B6100BFFEE70B4B1B68BA6842F0004283
:103E90009A61084B1B6818331946F868FEF747FA11
:103EA0000121786800F050FE00BF1837BD4680BD84
:103EB0000C4C00201047002080B586B000AFF860A1
:103EC000B9607A60FB68002B0AD14FF0500383F38E
:103ED0001188BFF36F8FBFF34F8F7B6100BFFEE789
:103EE0000A4B1B6818331946F868FEF720FA7B68FE
:103EF000002B02D04FF0FF33BB607968B86800F048
:103F000023FE00BF1837BD4680BD00BF104700200C
:103F100080B586B000AF78607B68DB68DB683B61AA
:103F20003B69002B0AD14FF0500383F31188BFF394
:103F30006F8FBFF34F8FFB6000BFFEE73B69183305
:103F40001846FEF751FA1F4B1B68002B1FD13B6927
:103F500004331846FEF748FA3B69DA6A1A4B1B68C5
:103F60009A4203D93B69DB6A174A13603B69DA6AF4
:103F700013469B0013449B00144A1A443B690433C4
:103F800019461046FEF7D3F900F01CFA05E03B692C
:103F9000183319460E48FEF7CAF93B69DA6A0D4B29
:103FA0001B68DB6A9A4205D901237B610A4B012217
:103FB0001A6001E000237B617B6918461837BD4613
:103FC00080BD00BF0C4C0020EC4B002014470020AB
:103FD000A44B002010470020F84B002080B586B08D
:103FE00000AF786039602A4B1B68002B0AD14FF074
:103FF000500383F31188BFF36F8FBFF34F8F3B6183
:1040000000BFFEE73B6843F000427B681A607B68B4
:10401000DB687B617B69002B0AD14FF0500383F38F
:104020001188BFF36F8FBFF34F8FFB6000BFFEE7B8
:104030007868FEF7D9F900F0C5F97B6904331846B2
:10404000FEF7D2F97B69DA6A124B1B689A4203D9F0
:104050007B69DB6A0F4A13607B69DA6A13469B004F
:1040600013449B000C4A1A447B69043319461046DA
:10407000FEF75DF97B69DA6A084B1B68DB6A9A42D6
:1040800002D9074B01221A6000BF1837BD4680BD18
:104090000C4C0020EC4B002014470020104700205F
:1040A000F84B002080B483B000AF7860064B1A68EC
:1040B0007B681A60054B1A687B685A6000BF0C3732
:1040C000BD465DF8047B7047FC4B0020E84B0020A8
:1040D00080B588B000AF786039607B68002B0AD16A
:1040E0004FF0500383F31188BFF36F8FBFF34F8FEF
:1040F0003B6100BFFEE73B68002B0AD14FF0500345
:1041000083F31188BFF36F8FBFF34F8FFB6000BF46
:10411000FEE702F097FD1D4B1B68BB617B685B6887
:10412000BA69D31A7B613B681B68B3F1FF3F02D1C8
:104130000023FB6123E07B681A68154B1B689A42D9
:1041400007D07B685B68BA699A4202D30123FB619E
:1041500015E03B681B687A699A420BD23B681A6883
:104160007B69D21A3B681A607868FFF79BFF0023CF
:10417000FB6104E03B6800221A600123FB6102F04E
:1041800091FDFB6918462037BD4680BDE84B0020F5
:10419000FC4B002080B400AF034B01221A6000BF2B
:1041A000BD465DF8047B7047F84B002080B584B0B5
:1041B00000AF786000F0A8F8184B1B68012B07D9F6
:1041C000174B4FF080521A60BFF34F8FBFF36F8FC2
:1041D000FFF7D0FBF860FB68012BEBD9FFF7BCFBC6
:1041E000104B1A68104B1B689A420AD24FF05003CA
:1041F00083F31188BFF36F8FBFF34F8FBB6000BF96
:10420000FEE7FFF7B7FBF860FB68012B02D9F868FF
:1042100002F0CCFDFFF7E6FBCCE700BF144700201F
:1042200004ED00E0044C0020E84B002080B483B093
:1042300000AF01233B600123FB710F4B1B68002B78
:1042400002D00023FB7110E00C4B1B68002B02D046
:104250000023FB7109E00A4B1A680A4B19683B6896
:10426000CB1A9A4201D10223FB71FB7918460C3715
:10427000BD465DF8047B7047A44B0020F84B00203E
:10428000D04B0020E44B002080B582B000AF00236B
:104290007B600CE07A6813469B0013449B00124A33
:1042A00013441846FEF716F87B6801337B607B6881
:1042B000372BEFD90D48FEF70DF80D48FEF70AF839
:1042C0000C48FEF707F80C48FEF704F80B48FEF719
:1042D00001F80B4B054A1A600A4B054A1A6000BFE9
:1042E0000837BD4680BD00BF14470020744B002036
:1042F000884B0020A44B0020B84B0020D04B00205E
:104300009C4B0020A04B002080B582B000AF19E08C
:1043100002F098FC104BDB68DB687B607B68043341
:104320001846FEF761F80D4B1B68013B0B4A136002
:104330000B4B1B68013B0A4A136002F0B3FC786820
:1043400000F010F8064B1B68002BE1D100BF00BF46
:104350000837BD4680BD00BFB84B0020E44B0020AD
:10436000CC4B002080B584B000AF78607B6893F8B8
:104370006130002B08D17B681B6B184602F014FAE1
:10438000786802F011FA18E07B6893F86130012B2D
:1043900003D1786802F008FA0FE07B6893F8613087
:1043A000022B0AD04FF0500383F31188BFF36F8FB5
:1043B000BFF34F8FFB6000BFFEE700BF1037BD4665
:1043C00080BD000080B483B000AF0C4B1B681B683D
:1043D000002B04D10A4B4FF0FF321A6008E0074B64
:1043E0001B68DB68DB687B607B685B68044A136082
:1043F00000BF0C37BD465DF8047B70479C4B002026
:10440000044C002080B483B000AF054B1B687B6078
:104410007B6818460C37BD465DF8047B704700BFCB
:104420001047002080B483B000AF0B4B1B68002BFB
:1044300002D101237B6008E0084B1B68002B02D1EE
:1044400002237B6001E000237B607B6818460C3709
:10445000BD465DF8047B7047F04B00200C4C0020FB
:1044600080B584B000AF78607B68BB600023FB60E0
:104470007B68002B51D0BB68DA6A2A4B1B68DB6A69
:104480009A4241D2BB689B69002B06DB254B1B6817
:10449000DB6AC3F13802BB689A61BB685969BB68C3
:1044A000DA6A13469B0013449B001F4A1344994247
:1044B00022D1BB6804331846FDF796FF194B1B68E1
:1044C000DA6ABB68DA62BB68DA6A184B1B689A4220
:1044D00003D9BB68DB6A154A1360BB68DA6A134606
:1044E0009B0013449B00104A1A44BB6804331946CE
:1044F0001046FDF71CFF04E00A4B1B68DA6ABB6834
:10450000DA620123FB6008E0BB681A6D054B1B688B
:10451000DB6A9A4201D20123FB60FB681846103720
:10452000BD4680BD1047002014470020EC4B002002
:1045300080B586B000AF78607B683B6100237B610B
:104540007B68002B56D02E4B1B683A699A420AD0E2
:104550004FF0500383F31188BFF36F8FBFF34F8F7A
:10456000FB6000BFFEE73B695B6D002B0AD14FF09B
:10457000500383F31188BFF36F8FBFF34F8FBB607E
:1045800000BFFEE73B695B6D5A1E3B695A653B699C
:10459000DA6A3B691B6D9A422CD03B695B6D002B3C
:1045A00028D13B6904331846FDF71EFF3B691A6D9D
:1045B0003B69DA623B69DB6AC3F138023B699A61A5
:1045C0003B69DA6A0F4B1B689A4203D93B69DB6A85
:1045D0000C4A13603B69DA6A13469B0013449B0044
:1045E000094A1A443B69043319461046FDF79FFEF9
:1045F00001237B617B6918461837BD4680BD00BF2B
:1046000010470020EC4B00201447002080B588B0F4
:1046100000AF786039607B68BB6101237B617B6898
:10462000002B6AD0BB695B6D002B0AD14FF05003A1
:1046300083F31188BFF36F8FBFF34F8FFB6000BF11
:10464000FEE7BB691B6D3A689A4202D93B68FB6181
:1046500002E0BB691B6DFB61BB69DB6AFA699A42C8
:104660004BD0BB695B6D7A699A4246D1254B1B687A
:10467000BA699A420AD14FF0500383F31188BFF30D
:104680006F8FBFF34F8FBB6000BFFEE7BB69DB6A74
:104690003B61BB69FA69DA62BB699B69002B04DB89
:1046A000FB69C3F13802BB699A61BB6959693A6910
:1046B00013469B0013449B00134A134499421CD198
:1046C000BB6904331846FDF78FFEBB69DA6A0F4BEE
:1046D0001B689A4203D9BB69DB6A0C4A1360BB6949
:1046E000DA6A13469B0013449B00074A1A44BB69CD
:1046F000043319461046FDF71AFE00BF2037BD46A9
:1047000080BD00BF1047002014470020EC4B002064
:1047100080B483B000AF094B1B689B697B60074B7B
:104720001B68DA6A054B1B68C2F138029A617B6824
:1047300018460C37BD465DF8047B704710470020D3
:1047400080B400AF074B1B68002B04D0054B1B68DF
:104750005A6D01325A65034B1B681846BD465DF819
:10476000047B70471047002080B586B000AFF8602A
:10477000B9607A603B6002F065FA264B1B6893F8DB
:104780006030DBB2022B1AD0224B1B68D96DFA685D
:10479000D2430A40DA651F4B1B68012283F8602070
:1047A0003B68002B0BD00121386800F0CDF91A4B83
:1047B0004FF080521A60BFF34F8FBFF36F8F02F03C
:1047C00071FA02F03FFA7B68002B04D0114B1B6892
:1047D000DA6D7B681A600F4B1B6893F86030DBB2B0
:1047E000022B02D000237B6108E00A4B1B68D96DC5
:1047F000BA68D2430A40DA6501237B61054B1B6826
:10480000002283F8602002F04DFA7B6918461837C1
:10481000BD4680BD1047002004ED00E080B58AB0A1
:1048200000AFF860B9603B601346FB7101237B6207
:10483000FB68002B0AD14FF0500383F31188BFF3BC
:104840006F8FBFF34F8FBB6100BFFEE7FB683B621A
:1048500002F0F8F93B68002B03D03B6ADA6D3B6845
:104860001A603B6A93F86030FB773B6A022283F858
:104870006020FB79042B28D801A252F823F000BF56
:10488000EB48000895480008A3480008AF48000816
:10489000B74800083B6ADA6DBB681A433B6ADA65C1
:1048A00026E03B6ADB6D5A1C3B6ADA6520E03B6A16
:1048B000BA68DA651CE0FB7F022B03D03B6ABA685A
:1048C000DA6515E000237B6212E03B6ADB6DB3F131
:1048D000FF3F0CD04FF0500383F31188BFF36F8F6D
:1048E000BFF34F8F7B6100BFFEE700BF00E000BF5A
:1048F000FB7F012B3CD13B6A04331846FDF774FD66
:104900003B6ADA6A1E4B1B689A4203D93B6ADB6A30
:104910001B4A13603B6ADA6A13469B0013449B00F0
:10492000184A1A443B6A043319461046FDF7FFFC47
:104930003B6A9B6A002B0AD04FF0500383F3118827
:10494000BFF36F8FBFF34F8F3B6100BFFEE7FFF7F1
:1049500039FD3B6ADA6A0C4B1B68DB6A9A4207D95D
:104960000A4B4FF080521A60BFF34F8FBFF36F8F27
:1049700002F098F97B6A18462837BD4680BD00BF13
:10498000EC4B0020144700201047002004ED00E00D
:1049900080B58EB000AFF860B9603B601346FB7124
:1049A00001237B63FB68002B0AD14FF0500383F394
:1049B0001188BFF36F8FBFF34F8F7B6200BFFEE79D
:1049C00002F006FBFB683B63EFF311824FF05003EC
:1049D00083F31188BFF36F8FBFF34F8F3A62FB6190
:1049E0003B6AFB623B68002B03D03B6BDA6D3B6894
:1049F0001A603B6B93F8603087F82B303B6B0222D8
:104A000083F86020FB79042B28D801A252F823F008
:104A10007D4A0008254A0008334A00083F4A00083A
:104A2000474A00083B6BDA6DBB681A433B6BDA659B
:104A300027E03B6BDB6D5A1C3B6BDA6521E03B6B7F
:104A4000BA68DA651DE097F82B30022B03D03B6B78
:104A5000BA68DA6515E000237B6312E03B6BDB6D1F
:104A6000B3F1FF3F0CD04FF0500383F31188BFF335
:104A70006F8FBFF34F8FBB6100BFFEE700BF00E049
:104A800000BF97F82B30012B46D13B6B9B6A002B64
:104A90000AD04FF0500383F31188BFF36F8FBFF339
:104AA0004F8F7B6100BFFEE7214B1B68002B1DD1A0
:104AB0003B6B04331846FDF797FC3B6BDA6A1D4BE2
:104AC0001B689A4203D93B6BDB6A1A4A13603B6B43
:104AD000DA6A13469B0013449B00174A1A443B6B47
:104AE000043319461046FDF722FC05E03B6B1833F2
:104AF00019461248FDF71BFC3B6BDA6A104B1B682A
:104B0000DB6A9A4208D93B6C002B02D03B6C012235
:104B10001A600C4B01221A60FB6A3B613B6983F30C
:104B2000118800BF7B6B18463837BD4680BD00BF7B
:104B30000C4C0020EC4B002014470020A44B00201C
:104B400010470020F84B002080B584B000AF78609B
:104B50003960214B1B68FB60204B1B6804331846EF
:104B6000FDF742FC7B68B3F1FF3F0AD13B68002BA5
:104B700007D01A4B1B68043319461948FDF7D7FBB9
:104B800026E0FA687B681344BB60144B1B68BA6864
:104B90005A60BA68FB689A4209D2124B1A680F4BE6
:104BA0001B68043319461046FDF7E5FB10E00E4B79
:104BB0001A680A4B1B68043319461046FDF7DBFBE5
:104BC0000A4B1B68BA689A4202D2084ABB68136053
:104BD00000BF1037BD4680BDE84B002010470020C5
:104BE000D04B0020A04B00209C4B0020044C002008
:104BF00080B58AB004AF00237B6100F0A1FB1C4BA1
:104C00001B68002B21D00023FB600023BB603A1DF2
:104C100007F1080107F10C03184601F0DFFC796881
:104C2000BB68FA68029201930223009300230A46AC
:104C300010491148FEF74CFC0346104A13600F4B15
:104C40001B68002B01D001237B617B69002B0AD1FB
:104C50004FF0500383F31188BFF36F8FBFF34F8F73
:104C60003B6100BFFEE77B6918461837BD4680BD33
:104C7000484C00204C3B0108E94E00084C4C0020F9
:104C800080B588B002AFF860B9607A603B602C20D4
:104C900001F0BEFC78617B69002B0DD07B6900229E
:104CA00083F828207B6901933B6A00933B687A680C
:104CB000B968F86800F043F87B6918461837BD46B4
:104CC00080BD80B58AB002AFF860B9607A603B60A1
:104CD0002C233B613B692C2B0AD04FF0500383F30C
:104CE0001188BFF36F8FBFF34F8FBB6100BFFEE72B
:104CF0003B69FB6A002B0AD14FF0500383F3118804
:104D0000BFF36F8FBFF34F8F7B6100BFFEE7FB6A7E
:104D1000FB61FB69002B0DD0FB69022283F8282080
:104D2000FB690193BB6A00933B687A68B968F868CD
:104D300000F005F8FB6918462037BD4680BD80B5F8
:104D400086B000AFF860B9607A603B60BB68002B4A
:104D50000AD14FF0500383F31188BFF36F8FBFF375
:104D60004F8F7B6100BFFEE77B6A002B1ED000F0F7
:104D7000E7FA7B6AFA681A607B6ABA689A617B6AAA
:104D80003A68DA617B6A3A6A1A627B6A04331846C7
:104D9000FDF7C0FA7B68002B08D07B6A93F82830B7
:104DA00043F00403DAB27B6A83F8282000BF183787
:104DB000BD4680BD80B58AB000AFF860B9607A604A
:104DC0003B6000237B62FB68002B0AD14FF050034D
:104DD00083F31188BFF36F8FBFF34F8F3B6200BF28
:104DE000FEE71A4B1B68002B2AD0BB683B617B682F
:104DF0007B61FB68BB61BB68052B18DCFFF712FB0E
:104E00000346022B09D1114B186807F1100100234A
:104E10003A6BFDF7BBFC786212E00C4B186807F1A7
:104E2000100100230022FDF7B1FC786208E0074B77
:104E3000186807F1100100233A68FDF7A5FD7862B4
:104E40007B6A18462837BD4680BD00BF484C00200D
:104E500080B588B002AF78603960224B1B68DB6890
:104E6000DB687B617B6904331846FDF7BDFA7B691B
:104E700093F8283003F00403002B22D07B699A6951
:104E80007B68D1187B683A68786900F0D1F80346EE
:104E9000002B1FD00023009300237A68002178693B
:104EA000FFF788FF38613B69002B13D14FF05003A7
:104EB00083F31188BFF36F8FBFF34F8FFB6000BF89
:104EC000FEE77B6993F8283023F00103DAB27B69AF
:104ED00083F828207B691B6A7869984700BF1837D8
:104EE000BD4680BD404C002080B584B000AF7860E6
:104EF00007F10803184600F057F8F860BB68194638
:104F0000F86800F003F800F0D5F8F1E780B584B058
:104F100000AF78603960FEF71FFD07F108031846FF
:104F200000F066F8F860BB68002B30D13B68002BBE
:104F30000AD17A68FB689A4206D8FEF753FDF968F1
:104F40007868FFF785FF24E03B68002B08D0134BFF
:104F50001B681B68002B01D1012300E000233B608C
:104F60000F4B18687A68FB68D31A3A681946FEF73F
:104F70007BFAFEF737FD0346002B0AD1094B4FF0B1
:104F800080521A60BFF34F8FBFF36F8F01E0FEF7BF
:104F900029FD00BF1037BD4680BD00BF444C002036
:104FA000484C002004ED00E080B485B000AF78608C
:104FB0000E4B1B681B68002B01D1012200E0002270
:104FC0007B681A607B681B68002B05D1074B1B6848
:104FD000DB681B68FB6001E00023FB60FB68184690
:104FE0001437BD465DF8047B704700BF404C00207D
:104FF00080B584B000AF7860FEF792FDF8600B4B8F
:105000001B68FA689A4205D200F036F97B680122E3
:105010001A6002E07B6800221A60044AFB68136091
:10502000FB6818461037BD4680BD00BF504C0020BD
:1050300080B586B000AFF860B9607A603B6000234D
:105040007B61FB68BA685A60FB68FA681A61BA68E3
:105050007B689A4212D87A683B68D21AFB689B69CF
:105060009A4202D301237B611BE0104B1A68FB6854
:10507000043319461046FDF77EF912E07A683B6862
:105080009A4206D2BA683B689A4202D301237B61F6
:1050900007E0074B1A68FB68043319461046FDF712
:1050A0006AF97B6918461837BD4680BD444C00201C
:1050B000404C002080B58EB002AFCAE07B68002B68
:1050C00018DA3B1D0433FB62FB6A002B0AD14FF058
:1050D000500383F31188BFF36F8FBFF34F8FFB61D2
:1050E00000BFFEE7FB6A1B68FA6A5068FA6A9268BA
:1050F000114698477B68002BC0F2AA80FB68BB6210
:10510000BB6A5B69002B04D0BB6A04331846FDF709
:105110006BF93B461846FFF76BFF78627B68092BFB
:1051200000F2978001A252F823F000BF5551000809
:105130005551000855510008C9510008DD510008BB
:10514000275200085551000855510008C951000860
:10515000DD510008BB6A93F8283043F00103DAB24E
:10516000BB6A83F82820BA68BB6A9B69D118BB6800
:105170007A6AB86AFFF75CFF0346002B69D0BB6A06
:105180001B6AB86A9847BB6A93F8283003F0040397
:10519000002B5ED0BA68BB6A9B691A440023009357
:1051A00000230021B86AFFF705FE38623B6A002B36
:1051B0004FD14FF0500383F31188BFF36F8FBFF3CC
:1051C0004F8FBB6100BFFEE7BB6A93F8283023F026
:1051D0000103DAB2BB6A83F828203AE0BB6A93F88D
:1051E000283043F00103DAB2BB6A83F82820BA689A
:1051F000BB6A9A61BB6A9B69002B0AD14FF05003CE
:1052000083F31188BFF36F8FBFF34F8F7B6100BFB4
:10521000FEE7BB6A9A697B6AD1187B6A7A6AB86AC8
:10522000FFF706FF15E0BB6A93F8283003F002038E
:10523000002B03D1B86A01F0B7FA0AE0BB6A93F811
:10524000283023F00103DAB2BB6A83F8282000E09B
:1052500000BF084B1B68391D00221846FDF7BCFC37
:105260000346002B7FF42AAF00BF00BF3037BD4696
:1052700080BD00BF484C002080B588B002AF48E038
:105280002D4B1B68DB681B683B612B4B1B68DB6885
:10529000DB68FB60FB6804331846FDF7A5F8FB6884
:1052A0001B6AF8689847FB6893F8283003F00403FA
:1052B000002B2ED0FB689B693A691344BB60BA6827
:1052C0003B699A420ED9FB68BA685A60FB68FA6873
:1052D0001A61194B1A68FB68043319461046FDF72A
:1052E0004AF816E00023009300233A690021F86889
:1052F000FFF760FD78607B68002B0AD14FF0500308
:1053000083F31188BFF36F8FBFF34F8F3B6000BFF4
:10531000FEE7094B1B681B68002BB1D1064B1B68CD
:105320007B61064B1B68044A1360044A7B69136067
:1053300000BF1837BD4680BD404C0020444C0020C3
:1053400080B582B002AF01F07DFC154B1B68002BCD
:1053500020D11448FCF7BEFF1348FCF7BBFF134BEA
:10536000104A1A60124B104A1A6000230093114B26
:10537000114A10210A20FDF7C9F80346084A1360B4
:10538000074B1B68002B05D0054B1B680B491846C3
:10539000FEF716F801F086FC00BFBD4680BD00BFD9
:1053A000484C0020184C00202C4C0020404C002081
:1053B000444C0020F44C0020544C0020543B010885
:1053C00080B586B000AF78607B687B617B68002B1E
:1053D0000AD14FF0500383F31188BFF36F8FBFF3EF
:1053E0004F8FFB6000BFFEE701F02CFC7B69DB699F
:1053F0003B6101F057FC3B6918461837BD4680BD3C
:1054000080B58AB000AFF860B9607A603B606FF039
:1054100001037B61FB68BB61BB68FB617B683B622E
:10542000064B186807F1140100233A68FDF7ACFA3F
:1054300078627B6A18462837BD4680BD484C0020FC
:1054400080B483B000AF03463960FB7197F9073031
:10545000002B0ADB3B68DAB20C4997F907301201DE
:10546000D2B20B4483F800230AE03B68DAB2084961
:10547000FB7903F00F03043B1201D2B20B441A76FE
:1054800000BF0C37BD465DF8047B704700E100E0CB
:1054900000ED00E080B500AF054B1B68FEF7C2FFD2
:1054A0000346012B01D001F05FFC00BF80BD00BFAF
:1054B00010E000E080B500AF00216FF00400FFF7BE
:1054C000BFFF00BF80BD000080B483B000AFEFF32A
:1054D00005833B603B68002B03D06FF005037B60C6
:1054E0000CE00A4B1B68002B05D1084B01221A6007
:1054F00000237B6002E04FF0FF337B607B6818463F
:105500000C37BD465DF8047B704700BF444D00205A
:1055100080B582B000AFEFF305833B603B68002BA2
:1055200003D06FF005037B6010E00B4B1B68012B71
:1055300009D1FFF7BFFF084B02221A60FEF7A4F95A
:1055400000237B6002E04FF0FF337B607B681846EE
:105550000837BD4680BD00BF444D002080B58EB0E9
:1055600004AFF860B9607A6000233B61EFF3058314
:105570007B617B69002B7ED1FB68002B7BD0802375
:105580003B621823FB6100237B624FF0FF33BB615A
:105590007B68002B45D07B681B68002B02D07B68A2
:1055A0001B687B627B689B69002B02D07B689B69D0
:1055B000FB61FB69002B08D0FB69382B05D87B68A1
:1055C0005B6803F00103002B01D0002354E07B68EB
:1055D0005B69002B03D07B685B699B083B627B683F
:1055E0009B68002B0ED07B68DB68632B0AD97B6835
:1055F0001B69002B06D07B685B69002B02D001235E
:10560000BB6110E07B689B68002B0CD17B68DB687A
:10561000002B08D17B681B69002B04D10023BB61E0
:1056200001E00023BB61BB69012B10D17B681B69C2
:105630007A68926802920193FB690093BB683A6AA8
:10564000796AF868FDF744FF03463B6113E0BB69E4
:10565000002B10D13B6A9AB207F110030193FB694A
:105660000093BB68796AF868FDF78FFF0346012B4A
:1056700001D000233B613B6918462837BD4680BDF9
:1056800080B582B000AFFEF7BDFE78607B6818463B
:105690000837BD4680BD000080B588B002AF786095
:1056A00039607B687B617B69002B02D03B68002BF3
:1056B00003DA6FF00303FB6035E04FF0FF33FB606C
:1056C000EFF305833B613B69002B1FD00023BB60D8
:1056D00007F1080300930023012239687869FFF776
:1056E00057F907F10C03002200920022002178698B
:1056F000FFF74EF9BB68002B15D00D4B4FF08052D1
:105700001A60BFF34F8FBFF36F8F0CE000230122AD
:1057100039687869FFF782F807F10C03002200214D
:105720007869FFF77BF8FB6818461837BD4680BDDF
:1057300004ED00E080B586B000AF7860EFF305833C
:10574000FB60FB68002B03D06FF005037B612AE050
:105750007B68002B03DA6FF003037B6123E0FEF725
:1057600051FE386107F10803002200213869FFF774
:1057700055F80346012B13D1BB687B617B68DA4384
:10578000BB681340BB60B968002303223869FFF788
:1057900045F80346012B06D04FF0FF337B6102E052
:1057A0004FF0FF337B617B6918461837BD4680BDDB
:1057B00080B58CB000AFF860B9607A60EFF3058314
:1057C0007B617B69002B03D06FF00503FB626BE00C
:1057D000FB68002B03DA6FF00303FB6264E0BB6835
:1057E00003F00203002B02D00023BB6201E0FB6840
:1057F000BB620023FB627B687B62FEF791F9386233
:1058000007F110027B6AB96A0020FEF7ADFFF8616C
:10581000FB69012B37D1FA6AFB681340FB623B69D5
:10582000FA6A1343FB62BB6803F00103002B0CD040
:10583000FA68FB6A1340FA689A4232D07B68002B00
:105840000FD16FF00203FB622EE0FA68FB6A13408F
:10585000002B28D17B68002B03D16FF00203FB6281
:1058600022E0FEF75DF902463B6AD31ABB61BA69D2
:105870007B6A9A4202D900237B620EE07A6ABB6996
:10588000D31A7B6209E07B68002B03D16FF002031F
:10589000FB6202E06FF00103FB62FB69002BAFD1FA
:1058A00002E000BF00E000BFFB6A18463037BD468B
:1058B00080BD80B584B000AF7860EFF30583BB6036
:1058C000BB68002B03D06FF00503FB6007E00023EB
:1058D000FB607B68002B02D07868FDF7A1FFFB68B6
:1058E00018461037BD4680BD80B584B000AF7860E3
:1058F0007868FFF765FDF860FB68002B05D0FB6852
:105900001B68FA6852681046984700BF1037BD46BA
:1059100080BD000080B58CB002AFF8607A603B605B
:105920000B46FB7200233B62EFF305833B613B694F
:10593000002B63D1FB68002B60D0082000F068FECC
:1059400078617B69002B59D07B69FA681A607B69A2
:105950007A685A60FB7A002B02D10023FB6101E0D8
:105960000123FB614FF0FF33BB6100237B623B6887
:10597000002B1CD03B681B68002B02D03B681B68C7
:105980007B623B689B68002B06D03B68DB682B2B57
:1059900002D90123BB610CE03B689B68002B08D156
:1059A0003B68DB68002B04D10023BB6101E00023CE
:1059B000BB61BB69012B0CD13B689B680193124B07
:1059C00000937B69FA690121786AFFF77AF93862F6
:1059D0000BE0BB69002B08D10B4B00937B69FA6984
:1059E0000121786AFFF74CF938623B6A002B05D138
:1059F0007B69002B02D0786900F0D6FE3B6A18461E
:105A00002837BD4680BD00BFE958000880B588B082
:105A100002AF786039607B683B61EFF30583FB6020
:105A2000FB68002B03D06FF005037B6117E03B6937
:105A3000002B03D16FF003037B6110E00023009380
:105A400000233A6804213869FFF7B4F90346012BB3
:105A500002D100237B6102E06FF002037B617B696E
:105A600018461837BD4680BD80B586B000AF786057
:105A700000237B61EFF30583FB60FB68002B2DD1D6
:105A80004FF0FF333B617B68002B15D07B689B6830
:105A9000002B06D07B68DB681F2B02D901233B61FA
:105AA0000CE07B689B68002B08D17B68DB68002BCF
:105AB00004D100233B6101E000233B613B69012BE2
:105AC00006D17B689B681846FCF798F9786105E079
:105AD0003B69002B02D1FCF7C8F978617B69184655
