:020000040800F2
:1000000000000220210F0108070C00080D0C000859
:10001000130C0008190C00081F0C00080000000059
:10002000000000000000000000000000115E000859
:10003000250C00080000000061600008F54700087A
:10004000710F0108710F0108710F0108710F01088C
:10005000710F0108710F0108710F0108710F01087C
:10006000710F0108710F0108710F0108710F01086C
:10007000710F0108710F0108710F0108710F01085C
:10008000710F0108710F0108710F010800000000D5
:10009000000000000000000000000000710F0108D7
:1000A000710F0108710F0108350C0008710F01086C
:1000B000710F0108710F0108710F0108710F01081C
:1000C000710F0108710F0108710F0108710F01080C
:1000D000710F0108510C0008710F010800000000A9
:1000E000710F0108710F0108710F01080000000075
:1000F000000000000000000000000000710F010877
:1001000000000000710F0108710F0108710F010854
:1001100000000000000000000000000000000000DF
:10012000710F0108710F0108650C0008710F0108BB
:10013000710F010800000000000000000000000036
:10014000000000000000000000000000790C000822
:10015000710F0108710F01088D0C0008710F010863
:10016000710F0108710F010800000000000000007D
:10017000000000000000000000000000000000007F
:1001800000000000710F01080000000000000000E6
:08019000710F0108710F010855
:1001A000034613F8012B002AFBD1181A01387047B7
:1001B00001F0FF01102A2BDB10F0070F08D010F818
:1001C000013B013A8B422DD010F0070F42B3F6D11C
:1001D000F0B441EA012141EA014122F007047FF035
:1001E00000070023F0E80256083C85EA010586EA8C
:1001F000010685FA47F5A3FA87F586FA47F6A5FAC8
:1002000087F68EB9EED1F0BC01F0FF0102F00702D3
:1002100032B110F8013B013A83EA010313B1F8D17E
:100220000020704701387047002D06BF354603385F
:10023000073815F0010F07D1013015F4807F02BF98
:10024000013015F4C03F0130F0BC0138704700BFE9
:1002500053B94AB9002908BF00281CBF4FF0FF312D
:100260004FF0FF3000F00CB8ADF1080C6DE904CE92
:1002700012F064F9DDF804E0DDE9022304B0704710
:10028000704700BF0348044B834202D0034B03B1C5
:100290001847704760080020600800200000000038
:1002A0000548064B1B1AD90F01EBA301491002D0D8
:1002B000034B03B118477047600800206008002016
:1002C0000000000010B5064C237843B9FFF7DAFFB1
:1002D000044B13B10448AFF300800123237010BD19
:1002E00060080020000000000428010808B5054B44
:1002F0001BB105490548AFF30080BDE80840FFF792
:10030000CFBF00BF000000006408002004280108DF
:1003100080B500AF02480AF0DDFF00BF80BD00BF1E
:100320000C09002080B400AF034B1B685B6A1846C1
:10033000BD465DF8047B70470C09002080B582B093
:1003400000AF704B1B680AF00FFF00F047F900F098
:10035000B9FB00F08FFB00F063FB00F0A7F900F0A1
:1003600099FA00F0F5F900F0E3FA002166480BF085
:10037000C7F8042165480BF0C3F804F055FA644A45
:100380000121012004F03CFE0346624A1360624AE8
:100390000121012004F034FE0346604A1360604AE4
:1003A0000121012004F02CFE03465E4A13605E4AE0
:1003B0000121012004F024FE03465C4A13605C4ADC
:1003C0000121012004F01CFE03465A4A13605A4BD7
:1003D00000220121594804F04DFC0346584A13609D
:1003E000584B00220121584804F044FC0346574A68
:1003F0001360574B00220021564804F03BFC034693
:10040000554A1360554A0421042004F019FF03469D
:10041000534A1360534A0421042004F011FF034699
:10042000514A1360514A0421042004F009FF034695
:100430004F4A13604F4A0821082004F001FF034689
:100440004D4A13604D4A00214D4804F037FA0346E7
:100450004C4A13604C4A00214C4804F02FFA0346E2
:100460004B4A13604B4A00214B4804F027FA0346DD
:100470004A4A13604A4A00214A4804F01FFA0346D8
:10048000494A1360494A0021494804F017FA0346D3
:10049000484A1360484A0021484804F00FFA0346CE
:1004A000474A1360474A0021474804F007FA0346C9
:1004B000464A1360464804F087FC0346454A1360E9
:1004C00004F0D6F900237B6014E000224FF40051C1
:1004D00041480AF031F919200AF088FE01224FF450
:1004E00000513D480AF028F932200AF07FFE7B686F
:1004F00001337B607B68072BE7D94FF448700AF023
:1005000075FEDFE700000020C40800205409002029
:10051000842B0108C83B0020942B01081C3C0020C0
:10052000A42B0108703C0020B42B0108C43C00201F
:10053000C42B0108183D0020542B01089107010825
:10054000383B0020642B010881020108683B002031
:10055000742B0108F1010108983B0020F42A0108DE
:10056000783900200C2B0108DC390020242B0108ED
:10057000403A00203C2B0108A43A0020F829010849
:10058000C50B0008A00A00201C2A010809FB00086E
:10059000080D0020402A010825F8000870150020E9
:1005A000642A0108ED000108D81D0020882A0108EE
:1005B000D903010840260020AC2A0108B106010831
:1005C000A82E0020D02A01081907010810370020A2
:1005D000D42B01086C3D00200008024080B594B087
:1005E00000AF07F1200330220021184610F099FED9
:1005F00007F10C0300221A605A609A60DA601A61EF
:100600000023BB60274B1B6C264A43F080531364C6
:10061000244B1B6C03F08053BB60BB6800237B60E2
:10062000214B1B68204A43F4404313601E4B1B6858
:1006300003F440437B607B6801233B624FF48033CB
:100640007B620223BB634FF48003FB6319233B648B
:10065000C0237B640223BB640423FB6407F12003F3
:10066000184609F05BFA0346002B01D000F0C6FAE9
:100670000F23FB6002233B6100237B614FF4805317
:10068000BB610023FB6107F10C030321184609F04D
:10069000BDFC0346002B01D000F0B0FA00BF50377C
:1006A000BD4680BD003802400070004080B584B077
:1006B00000AF3B4600221A605A609A60DA60214B14
:1006C000214A1A601F4B4FF480325A601D4B0022A2
:1006D0009A601C4B00221A611A4B00221A76194BA1
:1006E000002283F82020174B0022DA62154B174AAC
:1006F0009A62144B0022DA60124B0122DA61114B2C
:10070000002283F830200F4B01225A610D4810F06F
:1007100049F80346002B01D000F070FA00233B603B
:1007200001237B600023BB603B461946054810F05F
:10073000C9F90346002B01D000F060FA00BF103762
:10074000BD4680BD7C080020002001400100000F54
:1007500080B596B000AF07F1480300221A605A60D6
:100760009A60DA6007F1400300221A605A6007F1CC
:10077000240300221A605A609A60DA601A615A6192
:100780009A613B1D20220021184610F0CAFD3F4B04
:100790003F4A1A603D4B00225A603C4B00229A604F
:1007A0003A4B42F27F52DA60384B00221A61374BE3
:1007B00000225A61354B00229A6134480AF03AFD12
:1007C0000346002B01D000F019FA4FF48053BB64AC
:1007D00007F1480319462D480BF00CF90346002B8E
:1007E00001D000F00BFA29480AF030FE0346002B36
:1007F00001D000F003FA00233B6400237B6407F17F
:100800004003194621480BF0B1FC0346002B01D0F0
:1008100000F0F4F960237B6242F27F53BB62002355
:10082000FB6200233B6300237B630023BB63002345
:10083000FB6307F124030022194614480BF018F853
:100840000346002B01D000F0D9F900237B60002380
:10085000BB600023FB6000233B6100237B614FF4FE
:100860000053BB6100233B623B1D194607480BF058
:10087000EBFC0346002B01D000F0C0F9034800F068
:10088000D1FA00BF5837BD4680BD00BFC408002064
:100890000000014080B586B000AF07F108030022D8
:1008A0001A605A609A60DA603B4600221A605A6009
:1008B0001E4B4FF080421A601C4B42F27F525A602E
:1008C0001A4B00229A60194B4FF0FF32DA60174B37
:1008D00000221A61154B00229A6114480AF0AAFC02
:1008E0000346002B01D000F089F94FF48053BB6020
:1008F00007F1080319460D480BF07CF80346002B5E
:1009000001D000F07BF900233B6000237B603B4675
:10091000194606480BF02AFC0346002B01D000F0D4
:100920006DF900BF1837BD4680BD00BF0C0900201F
:1009300080B58EB000AF07F1280300221A605A601C
:100940009A60DA6007F1200300221A605A603B1DAA
:1009500000221A605A609A60DA601A615A619A61DC
:100960002D4B2E4A1A602C4B00225A602A4B002233
:100970009A60294B42F27F52DA60274B00221A61BB
:10098000254B00229A6124480AF054FC0346002BB0
:1009900001D000F033F94FF48053BB6207F1280314
:1009A00019461D480BF026F80346002B01D000F035
:1009B00025F919480AF04AFD0346002B01D000F042
:1009C0001DF900233B6200237B6207F120031946D7
:1009D00011480BF0CBFB0346002B01D000F00EF9C1
:1009E00060237B6042F27F53BB600023FB600023E7
:1009F0007B613B1D0422194607480AF039FF034674
:100A0000002B01D000F0FAF8034800F00BFA00BF09
:100A10003837BD4680BD00BF5409002000040040A7
:100A200080B500AF114B124A1A60104B4FF41652AA
:100A30005A600E4B00229A600C4B0022DA600B4B7E
:100A400000221A61094B0C225A61084B00229A615C
:100A5000064B0022DA6105480BF05CFC0346002BD4
:100A600001D000F0CBF800BF80BD00BF9C09002082
:100A70000010014080B582B000AF00237B60104BB6
:100A80001B6B0F4A43F4800313630D4B1B6B03F482
:100A900080037B607B68002205213A200AF03AFB44
:100AA0003A200AF053FB0022052146200AF032FBCF
:100AB00046200AF04BFB00BF0837BD4680BD00BF93
:100AC0000038024080B58AB000AF07F1140300225D
:100AD0001A605A609A60DA601A6100233B61364BF3
:100AE0001B6B354A43F004031363334B1B6B03F05A
:100AF00004033B613B690023FB602F4B1B6B2E4AB9
:100B000043F0800313632C4B1B6B03F08003FB60EB
:100B1000FB680023BB60284B1B6B274A43F0010393
:100B20001363254B1B6B03F00103BB60BB68002301
:100B30007B60214B1B6B204A43F0020313631E4B67
:100B40001B6B03F002037B607B6800221E211B48A5
:100B500009F0F2FD01224021184809F0EDFD0022C4
:100B600042F20401164809F0E7FD01224FF48051DA
:100B7000134809F0E1FD5E237B610123BB61002383
:100B8000FB6100233B6207F1140319460B4809F08F
:100B90004FFC43F204037B610123BB610023FB6133
:100BA00000233B6207F114031946054809F040FC95
:100BB00000BF2837BD4680BD00380240000002401B
:100BC0000004024080B582B000AF786005F0F0FB11
:100BD000012004F01EF8FBE780B582B000AF78601A
:100BE0007B681B68044A934201D10AF0DFFA00BF18
:100BF0000837BD4680BD00BF0048014080B400AF4B
:100C000072B600BFFEE780B400AFFEE780B400AF6D
:100C1000FEE780B400AFFEE780B400AFFEE780B42B
:100C200000AFFEE780B400AF00BFBD465DF8047BB7
:100C30007047000080B500AF03480AF011FD03487B
:100C40000AF00EFD00BF80BDC4080020903D0020CA
:100C500080B500AF02480BF08FFC00BF80BD00BF25
:100C60009C09002080B500AF024809F031FF00BFA9
:100C700080BD00BFE009002080B500AF024806F04B
:100C8000D1F900BF80BD00BF2868002080B500AF4B
:100C9000024809F01DFF00BF80BD00BF400A0020D0
:100CA00080B582B000AF00237B60124B5B6C114AB1
:100CB00043F4804353640F4B5B6C03F480437B60CD
:100CC0007B6800233B600B4B1B6C0A4A43F080534C
:100CD0001364084B1B6C03F080533B603B6800229D
:100CE0000F216FF001000AF015FA00BF0837BD466A
:100CF00080BD00BF0038024080B58AB000AF786088
:100D000007F1140300221A605A609A60DA601A61CF
:100D10007B681B68174A934227D100233B61164B1F
:100D20005B6C154A43F480735364134B5B6C03F4A0
:100D300080733B613B690023FB600F4B1B6B0E4ACA
:100D400043F0010313630C4B1B6B03F00103FB60C7
:100D5000FB6801237B610323BB610023FB6107F177
:100D600014031946054809F063FB00BF2837BD4648
:100D700080BD00BF0020014000380240000002405A
:100D800080B586B000AF78607B681B68224A9342CA
:100D900016D100237B61214B5B6C204A43F0010399
:100DA00053641E4B5B6C03F001037B617B69002283
:100DB00005211A200AF0AEF91A200AF0C7F926E038
:100DC0007B681B68B3F1804F0ED100233B61134B4E
:100DD0001B6C124A43F001031364104B1B6C03F0AD
:100DE00001033B613B6912E07B681B680C4A93423C
:100DF0000DD10023FB60094B1B6C084A43F0020332
:100E00001364064B1B6C03F00203FB60FB6800BF1E
:100E10001837BD4680BD00BF0000014000380240C9
:100E20000004004080B58AB000AF786007F1140379
:100E300000221A605A609A60DA601A617B681B6847
:100E4000244A93421FD100233B61234B1B6B224A50
:100E500043F001031363204B1B6B03F001033B6161
:100E60003B694FF480737B610223BB610023FB610C
:100E700000233B6201237B6207F1140319461748E4
:100E800009F0D6FA22E07B681B68154A93421DD10F
:100E90000023FB60104B1B6B0F4A43F001031363ED
:100EA0000D4B1B6B03F00103FB60FB6880237B6130
:100EB0000223BB610023FB6100233B6202237B62B0
:100EC00007F114031946054809F0B2FA00BF2837A4
:100ED000BD4680BD000001400038024000000240D5
:100EE0000004004080B58AB000AF786007F11403B9
:100EF00000221A605A609A60DA601A617B681B6887
:100F00004C4A934240F0918000233B614A4B5B6C1A
:100F1000494A43F010035364474B5B6C03F01003E2
:100F20003B613B690023FB60434B1B6B424A43F030
:100F300001031363404B1B6B03F00103FB60FB6871
:100F40004FF4C0637B610223BB610023FB61032379
:100F50003B6207237B6207F114031946374809F007
:100F600067FA374B374A1A60354B4FF000625A60C8
:100F7000334B00229A60324B0022DA60304B4FF440
:100F800080621A612E4B00225A612D4B00229A6119
:100F90002B4B0022DA612A4B00221A62284B0022D6
:100FA0005A62274809F0FCFB0346002B01D0FFF7EB
:100FB00025FE7B68224A9A63214A7B689363224B11
:100FC000224A1A60204B4FF000625A601E4B4022AA
:100FD0009A601D4B0022DA601B4B4FF480621A614D
:100FE000194B00225A61184B00229A61164B0022BD
:100FF000DA61154B00221A62134B00225A62124822
:1010000009F0CEFB0346002B01D0FFF7F7FD7B680C
:101010000D4A5A630C4A7B68936300220521252000
:101020000AF078F825200AF091F800BF2837BD466D
:1010300080BD00BF001001400038024000000240A7
:10104000E009002040640240400A0020B8640240E9
:1010500080B483B000AF786000BF0C37BD465DF848
:10106000047B704780B483B000AF786000BF0C375A
:10107000BD465DF8047B704780B58CB000AF7860EA
:101080000023BB6200237B620023BB602E4B5B6CA2
:101090002D4A43F4802353642B4B5B6C03F4802371
:1010A000BB60BB6807F10C0207F11003114618463C
:1010B00009F08CF909F076F9B862BB6A234AA2FB01
:1010C00003239B0C013B7B62214B224A1A60204B7D
:1010D00040F2E732DA601E4A7B6A53601C4B002202
:1010E0001A611B4B00229A60194B00229A61184822
:1010F0000AF0A0F8034687F82F3097F82F30002B1E
:101100001BD113480AF040F9034687F82F3097F8AF
:101110002F30002B11D11A200AF018F87B680F2B02
:1011200008D8002279681A2009F0F4FF0A4A7B687F
:10113000136002E0012387F82F3097F82F3018460C
:101140003037BD4680BD00BF0038024083DE1B4300
:10115000903D0020004801406C00002080B586B022
:1011600000AF78607B68002B0AD14FF0500383F307
:101170001188BFF36F8FBFF34F8F3B6100BFFEE756
:101180002023BB60BB68202B0AD04FF0500383F3B1
:101190001188BFF36F8FBFF34F8FFB6000BFFEE777
:1011A0007B687B617B69002B0AD07B6900221A6017
:1011B0007B690433184600F03DFA7B6901221A77F7
:1011C0007B6918461837BD4680BD80B582B000AF38
:1011D000202004F0CDFB78607B68002B0AD07B6870
:1011E00000221A607B680433184600F023FA7B68FB
:1011F00000221A777B6818460837BD4680BD00007C
:1012000080B590B000AFF860B9607A603B60FB6871
:101210007B630023BB6300233B63FB68002B0AD185
:101220004FF0500383F31188BFF36F8FBFF34F8FDD
:101230003B6200BFFEE7BB6803F07F43002B0AD090
:101240004FF0500383F31188BFF36F8FBFF34F8FBD
:10125000FB6100BFFEE7BB68002B0AD14FF05003D3
:1012600083F31188BFF36F8FBFF34F8FBB6100BF54
:10127000FEE702F087FA0346002B02D1BB6C002B7D
:1012800001D1012300E00023002B0AD14FF05003CD
:1012900083F31188BFF36F8FBFF34F8F7B6100BF64
:1012A000FEE701F009FD7B6B1B68FB623A68B968D9
:1012B000F86A00F088F9B862BB6A002B0ED0FB6AAE
:1012C000FB630023BB647B68002B28D07B6B1A6810
:1012D000BB68DB431A407B6B1A6020E0BB6C002BC1
:1012E00004D1FB6AFB6301233B6318E07B68002B9E
:1012F00003D0BB6B43F08073BB633B68002B03D010
:10130000BB6B43F08063BB637B6B181DBA68BB6B20
:101310001343BA6C194601F043FF0023FB6301F04D
:1013200011FD7862BB6C002B31D07B6A002B07D19A
:10133000194B4FF080521A60BFF34F8FBFF36F8F7E
:1013400002F096FBF863FB6B03F00073002B1AD1DD
:1013500004F028FE7B6B1B68FB633A68B968F86B86
:1013600000F031F90346002B09D07B68002B06D032
:101370007B6B1A68BB68DB431A407B6B1A600123E6
:101380003B6304F03FFEFB6B23F07F43FB63FB6B8F
:1013900018464037BD4680BD04ED00E080B586B0FC
:1013A00000AF786039607B687B617B68002B0AD175
:1013B0004FF0500383F31188BFF36F8FBFF34F8F4C
:1013C000FB6000BFFEE73B6803F07F43002B0AD0C1
:1013D0004FF0500383F31188BFF36F8FBFF34F8F2C
:1013E000BB6000BFFEE704F0DDFD7B691B683B616D
:1013F0007B691A683B68DB431A407B691A6004F01A
:1014000001FE3B6918461837BD4680BD80B584B0E3
:1014100000AF7860396000233A687968044803F0C7
:101420009FF9F860FB6818461037BD4680BD00BFC5
:10143000AD15000880B489B000AF78607B68FB61AF
:10144000EFF311824FF0500383F31188BFF36F8FD6
:10145000BFF34F8FFA60BB60FB68BB61FB691B6821
:101460007B61BB693B613B6983F3118800BF7B698A
:1014700018462437BD465DF8047B704780B58EB0B2
:1014800000AF7860396000233B637B68BB62002358
:10149000FB627B68002B0AD14FF0500383F3118865
:1014A000BFF36F8FBFF34F8F3B6100BFFEE73B6819
:1014B00003F07F43002B0AD04FF0500383F31188D1
:1014C000BFF36F8FBFF34F8FFB6000BFFEE7BB6AB8
:1014D00004337B627B6A08333B6201F0EDFB7B6A7D
:1014E000DB687B63BB6A1A683B681A43BB6A1A6095
:1014F0003CE07B6B5B68FB617B6B1B68BB61002323
:10150000FB62BB6903F07F437B61BB6923F07F43D0
:10151000BB617B6903F08063002B08D1BB6A1A684A
:10152000BB691340002B0BD00123FB6208E0BB6AB0
:101530001A68BB691340BA699A4201D10123FB6260
:10154000FB6A002B10D07B6903F08073002B03D063
:101550003A6BBB6913433B63BB6A1B6843F0007380
:101560001946786B01F0EAFEFB697B637A6B3B6A94
:101570009A42BED1BB6A1A683B6BDB431A40BB6A16
:101580001A6001F0DFFBBB6A1B6818463837BD469E
:1015900080BD80B582B000AF786039603968786806
:1015A000FFF76CFF00BF0837BD4680BD80B582B035
:1015B00000AF7860396039687868FFF7EFFE00BFE8
:1015C0000837BD4680BD80B487B000AFF860B96011
:1015D0007A6000237B617B68002B07D1FA68BB68C7
:1015E0001340002B0AD001237B6107E0FA68BB6837
:1015F0001340BA689A4201D101237B617B69184686
:101600001C37BD465DF8047B7047000080B586B08E
:1016100000AFF860B9607A607B68BA68F96804481E
:1016200003F09EF878617B6918461837BD4680BD87
:101630009315000880B483B000AF78607B6803F135
:1016400008027B685A607B684FF0FF329A607B68C3
:1016500003F108027B68DA607B6803F108027B68AB
:101660001A617B6800221A6000BF0C37BD465DF826
:10167000047B704780B483B000AF78607B68002241
:101680001A6100BF0C37BD465DF8047B704780B41B
:1016900085B000AF786039607B685B68FB603B6851
:1016A000FA685A60FB689A683B689A60FB689B68B6
:1016B0003A685A60FB683A689A603B687A681A61CF
:1016C0007B681B685A1C7B681A6000BF1437BD46D4
:1016D0005DF8047B704780B485B000AF78603960F6
:1016E0003B681B68BB60BB68B3F1FF3F03D17B68FD
:1016F0001B69FB600CE07B680833FB6002E0FB6861
:101700005B68FB60FB685B681B68BA689A42F6D24C
:10171000FB685A683B685A603B685B683A689A6045
:101720003B68FA689A60FB683A685A603B687A6876
:101730001A617B681B685A1C7B681A6000BF1437EB
:10174000BD465DF8047B704780B485B000AF78601B
:101750007B681B69FB607B685B687A6892689A604B
:101760007B689B687A6852685A60FB685B687A6835
:101770009A4203D17B689A68FB685A607B680022B2
:101780001A61FB681B685A1EFB681A60FB681B68BD
:1017900018461437BD465DF8047B704780B584B0A9
:1017A00000AF786039607B68FB60FB68002B0AD172
:1017B0004FF0500383F31188BFF36F8FBFF34F8F48
:1017C000BB6000BFFEE704F0EDFBFB681A68FB6836
:1017D000DB6BF968096C01FB03F31A44FB689A6040
:1017E000FB6800229A63FB681A68FB685A60FB6812
:1017F0001A68FB68DB6B013BF968096C01FB03F3BA
:101800001A44FB68DA60FB68FF2283F84420FB6817
:10181000FF2283F845203B68002B14D1FB681B692D
:10182000002B1AD0FB681033184601F021FD034647
:10183000002B12D00C4B4FF080521A60BFF34F8F29
:10184000BFF36F8F09E0FB6810331846FFF7F2FE15
:10185000FB6824331846FFF7EDFE04F0D3FB0123A9
:1018600018461037BD4680BD04ED00E080B58EB04F
:1018700002AFF860B9607A603B60FB68002B0AD168
:101880004FF0500383F31188BFF36F8FBFF34F8F77
:10189000BB6200BFFEE73B68002B0AD14FF050034C
:1018A00083F31188BFF36F8FBFF34F8F7B6200BF4D
:1018B000FEE77B68002B02D0BB68002B01D0012320
:1018C00000E00023002B0AD14FF0500383F311886E
:1018D000BFF36F8FBFF34F8F3B6200BFFEE77B68A4
:1018E000002B02D1BB68002B01D1012300E00023B3
:1018F000002B0AD14FF0500383F31188BFF36F8F91
:10190000BFF34F8FFB6100BFFEE750237B617B6914
:10191000502B0AD04FF0500383F31188BFF36F8F21
:10192000BFF34F8FBB6100BFFEE77B693B68FB6283
:10193000FB6A002B0DD0FB6A012283F8462097F842
:101940003820FB6A009313467A68B968F86800F09B
:101950003FF8FB6A18463037BD4680BD80B58AB077
:1019600002AFF860B9601346FB71FB68002B0AD127
:101970004FF0500383F31188BFF36F8FBFF34F8F86
:101980003B6100BFFEE7FB68BA6802FB03F3FB6143
:10199000FB695033184603F0EBFFB861BB69002BBD
:1019A00011D0BB697B617B6950337B61BB690022CD
:1019B00083F84620FA79BB69009313467A69B968BF
:1019C000F86800F005F8BB6918462037BD4680BDB1
:1019D00080B584B000AFF860B9607A60FB70BB6816
:1019E000002B03D1BB69BA691A6002E0BB697A684F
:1019F0001A60BB69FA68DA63BB69BA681A640121C4
:101A0000B869FFF7CBFEBB69FA7883F84C2000BFBA
:101A10001037BD4680BD80B58AB002AFF860B960AE
:101A20007A60FB68002B0AD14FF0500383F31188D2
:101A3000BFF36F8FBFF34F8FBB6100BFFEE7BA6884
:101A4000FB689A420AD94FF0500383F31188BFF321
:101A50006F8FBFF34F8F7B6100BFFEE702230093C0
:101A60007B6800220021F868FFF700FFF861FB693E
:101A7000002B02D0FB69BA689A63FB6918462037CD
:101A8000BD4680BD80B586B000AF786039607B68A8
:101A9000002B0AD14FF0500383F31188BFF36F8FEF
:101AA000BFF34F8F3B6100BFFEE73A687B689A4205
:101AB0000AD94FF0500383F31188BFF36F8FBFF340
:101AC0004F8FFB6000BFFEE7022200217868FFF71E
:101AD00045FF78617B69002B02D07B693A689A6385
:101AE0007B6918461837BD4680BD000080B58EB0B2
:101AF00000AFF860B9607A603B6000237B63FB68ED
:101B00003B633B6B002B0AD14FF0500383F31188EA
:101B1000BFF36F8FBFF34F8FBB6200BFFEE7BB68A1
:101B2000002B03D13B6B1B6C002B01D1012300E088
:101B30000023002B0AD14FF0500383F31188BFF329
:101B40006F8FBFF34F8F7B6200BFFEE73B68022BB6
:101B500003D13B6BDB6B012B01D1012300E00023A0
:101B6000002B0AD14FF0500383F31188BFF36F8F1E
:101B7000BFF34F8F3B6200BFFEE701F003FE034659
:101B8000002B02D17B68002B01D1012300E0002350
:101B9000002B0AD14FF0500383F31188BFF36F8FEE
:101BA000BFF34F8FFB6100BFFEE704F0FBF93B6B17
:101BB0009A6B3B6BDB6B9A4202D33B68022B29D1B9
:101BC0003A68B968386B00F09AFCF8623B6B5B6A64
:101BD000002B10D03B6B2433184601F049FB034621
:101BE000002B13D03F4B4FF080521A60BFF34F8F42
:101BF000BFF36F8F0AE0FB6A002B07D0394B4FF021
:101C000080521A60BFF34F8FBFF36F8F04F0FAF961
:101C1000012363E07B68002B03D104F0F3F9002378
:101C20005CE07B6B002B06D107F11403184601F032
:101C3000E9FB01237B6304F0E5F901F03DF804F0D2
:101C4000B1F93B6B93F844305BB2B3F1FF3F03D182
:101C50003B6B002283F844203B6B93F845305BB22A
:101C6000B3F1FF3F03D13B6B002283F8452004F022
:101C7000C9F93A1D07F114031146184601F0D8FBC3
:101C80000346002B24D1386B00F031FD0346002BB6
:101C900018D03B6B10337A681146184601F05CFA95
:101CA000386B00F0BCFC01F04DF80346002B7FF4CC
:101CB0007CAF0C4B4FF080521A60BFF34F8FBFF3D5
:101CC0006F8F72E7386B00F0AAFC01F03BF86CE70D
:101CD000386B00F0A4FC01F035F8002318463837C3
:101CE000BD4680BD04ED00E080B590B000AFF86067
:101CF000B9607A603B60FB68BB63BB6B002B0AD1A9
:101D00004FF0500383F31188BFF36F8FBFF34F8FF2
:101D1000BB6200BFFEE7BB68002B03D1BB6B1B6C33
:101D2000002B01D1012300E00023002B0AD14FF04A
:101D3000500383F31188BFF36F8FBFF34F8F7B6224
:101D400000BFFEE73B68022B03D1BB6BDB6B012BB3
:101D500001D1012300E00023002B0AD14FF05003F2
:101D600083F31188BFF36F8FBFF34F8F3B6200BFC8
:101D7000FEE704F0DDFAEFF311824FF0500383F336
:101D80001188BFF36F8FBFF34F8FFA61BB61FB699F
:101D90007B63BB6B9A6BBB6BDB6B9A4202D33B687A
:101DA000022B2FD1BB6B93F8453087F83330BB6BD8
:101DB0009B6BFB623A68B968B86B00F0A0FB97F9BF
:101DC0003330B3F1FF3F12D1BB6B5B6A002B16D0EF
:101DD000BB6B2433184601F04BFA0346002B0ED0A0
:101DE0007B68002B0BD07B6801221A6007E097F814
:101DF00033300133DBB25AB2BB6B83F84520012389
:101E0000FB6301E00023FB637B6B7B617B6983F3F6
:101E1000118800BFFB6B18464037BD4680BD80B5BA
:101E20008EB000AF786039607B683B633B6B002B02
:101E30000AD14FF0500383F31188BFF36F8FBFF3C4
:101E40004F8F3B6200BFFEE73B6B1B6C002B0AD041
:101E50004FF0500383F31188BFF36F8FBFF34F8FA1
:101E6000FB6100BFFEE73B6B1B68002B03D13B6BA4
:101E70009B68002B01D1012300E00023002B0AD135
:101E80004FF0500383F31188BFF36F8FBFF34F8F71
:101E9000BB6100BFFEE704F04BFAEFF311824FF095
:101EA000500383F31188BFF36F8FBFF34F8F7A61B5
:101EB0003B617B69FB623B6B9B6BBB623B6BDB6B90
:101EC000BA6A9A422BD23B6B93F8453087F8273099
:101ED000BB6A5A1C3B6B9A6397F92730B3F1FF3FFB
:101EE00012D13B6B5B6A002B16D03B6B2433184638
:101EF00001F0BEF90346002B0ED03B68002B0BD03F
:101F00003B6801221A6007E097F827300133DBB203
:101F10005AB23B6B83F8452001237B6301E0002329
:101F20007B63FB6AFB60FB6883F3118800BF7B6BFC
:101F300018463837BD4680BD80B58CB000AFF8601C
:101F4000B9607A600023FB62FB68BB62BB6A002B4E
:101F50000AD14FF0500383F31188BFF36F8FBFF3A3
:101F60004F8F3B6200BFFEE7BB68002B03D1BB6A0B
:101F70001B6C002B01D1012300E00023002B0AD1B0
:101F80004FF0500383F31188BFF36F8FBFF34F8F70
:101F9000FB6100BFFEE701F0F5FB0346002B02D119
:101FA0007B68002B01D1012300E00023002B0AD124
:101FB0004FF0500383F31188BFF36F8FBFF34F8F40
:101FC000BB6100BFFEE703F0EDFFBB6A9B6B7B626A
:101FD0007B6A002B1FD0B968B86A00F0FAFA7B6AF6
:101FE0005A1EBB6A9A63BB6A1B69002B0FD0BB6A7F
:101FF0001033184601F03CF90346002B07D03D4B47
:102000004FF080521A60BFF34F8FBFF36F8F03F012
:10201000F9FF012369E07B68002B03D103F0F2FF95
:10202000002362E0FB6A002B06D107F1100318467B
:1020300001F0E8F90123FB6203F0E4FF00F03CFE4D
:1020400003F0B0FFBB6A93F844305BB2B3F1FF3FDB
:1020500003D1BB6A002283F84420BB6A93F8453061
:102060005BB2B3F1FF3F03D1BB6A002283F8452086
:1020700003F0C8FF3A1D07F110031146184601F09E
:10208000D7F90346002B23D1B86A00F01AFB0346A8
:10209000002B17D0BB6A24337A681146184601F02A
:1020A0005BF8B86A00F0BBFA00F04CFE0346002B68
:1020B00089D1104B4FF080521A60BFF34F8FBFF39E
:1020C0006F8F80E7B86A00F0AAFA00F03BFE7AE76B
:1020D000B86A00F0A4FA00F035FEB86A00F0F1FA30
:1020E0000346002B3FF46FAF002318463037BD4640
:1020F00080BD00BF04ED00E080B58EB000AF786019
:10210000396000237B637B68FB6200233B63FB6ACF
:10211000002B0AD14FF0500383F31188BFF36F8F68
:10212000BFF34F8F3B6200BFFEE7FB6A1B6C002BC7
:102130000AD04FF0500383F31188BFF36F8FBFF3C2
:102140004F8FFB6100BFFEE701F01CFB0346002B35
:1021500002D13B68002B01D1012300E00023002BBA
:102160000AD14FF0500383F31188BFF36F8FBFF391
:102170004F8FBB6100BFFEE703F014FFFB6A9B6B50
:10218000BB62BB6A002B24D0BB6A5A1EFB6A9A63EF
:10219000FB6A1B68002B04D101F082FC0246FB6A3B
:1021A0009A60FB6A1B69002B0FD0FB6A103318463C
:1021B00001F05EF80346002B07D0544B4FF08052DD
:1021C0001A60BFF34F8FBFF36F8F03F01BFF012324
:1021D00097E03B68002B11D13B6B002B0AD04FF0EE
:1021E000500383F31188BFF36F8FBFF34F8F7B6171
:1021F00000BFFEE703F006FF002382E07B6B002BAD
:1022000006D107F10C03184601F0FCF801237B63AB
:1022100003F0F8FE00F050FD03F0C4FEFB6A93F8F3
:1022200044305BB2B3F1FF3F03D1FB6A002283F875
:102230004420FB6A93F845305BB2B3F1FF3F03D112
:10224000FB6A002283F8452003F0DCFE3A4607F1E2
:102250000C031146184601F0EBF80346002B32D16F
:10226000F86A00F02EFA0346002B26D0FB6A1B68A2
:10227000002B09D103F096FEFB6A9B68184601F01B
:102280009FFA386303F0BEFEFB6A24333A681146B6
:10229000184600F061FFF86A00F0C1F900F052FD45
:1022A0000346002B7FF468AF184B4FF080521A6042
:1022B000BFF34F8FBFF36F8F5EE7F86A00F0AFF99F
:1022C00000F040FD58E7F86A00F0A9F900F03AFD87
:1022D000F86A00F0F6F90346002B3FF44DAF3B6B74
:1022E000002B0DD003F05EFEF86A00F0F0F8786283
:1022F000FB6A9B68796A184601F038FB03F082FE9E
:10230000002318463837BD4680BD00BF04ED00E00D
:1023100080B58EB000AFF860B9607A60FB683B634F
:102320003B6B002B0AD14FF0500383F31188BFF3AE
:102330006F8FBFF34F8F3B6200BFFEE7BB68002B80
:1023400003D13B6B1B6C002B01D1012300E0002368
:10235000002B0AD14FF0500383F31188BFF36F8F26
:10236000BFF34F8FFB6100BFFEE703F0E1FFEFF328
:1023700011824FF0500383F31188BFF36F8FBFF3C7
:102380004F8FBA617B61BB69FB623B6B9B6BBB622E
:10239000BB6A002B2FD03B6B93F8443087F8273073
:1023A000B968386B00F015F9BB6A5A1E3B6B9A632B
:1023B00097F92730B3F1FF3F12D13B6B1B69002B1C
:1023C00016D03B6B1033184600F052FF0346002B2B
:1023D0000ED07B68002B0BD07B6801221A6007E0CF
:1023E00097F827300133DBB25AB23B6B83F84420B5
:1023F00001237B6301E000237B63FB6A3B613B6954
:1024000083F3118800BF7B6B18463837BD4680BD0B
:1024100080B584B000AF78607B68002B0AD14FF0A4
:10242000500383F31188BFF36F8FBFF34F8FBB60EF
:1024300000BFFEE703F0B6FD7B689B6BFB6003F01B
:10244000E1FDFB6818461037BD4680BD80B487B0FB
:1024500000AF78607B687B617B69002B0AD14FF00D
:10246000500383F31188BFF36F8FBFF34F8FFB606F
:1024700000BFFEE77B699B6B3B613B6918461C37DD
:10248000BD465DF8047B704780B584B000AF7860CE
:102490007B68FB60FB68002B0AD14FF0500383F38D
:1024A0001188BFF36F8FBFF34F8FBB6000BFFEE794
:1024B000F86800F05FF9FB6893F84630002B02D112
:1024C000F86803F021FB00BF1037BD4680BD80B423
:1024D00085B000AF78607B685B6A002B06D07B68B4
:1024E0001B6B1B68C3F13803FB6001E00023FB603A
:1024F000FB6818461437BD465DF8047B704780B50D
:1025000086B000AFF860B9607A6000237B61FB6839
:102510009B6B3B61FB681B6C002B0DD1FB681B6840
:10252000002B4DD1FB689B68184601F0B1F978612A
:10253000FB6800229A6043E07B68002B19D1FB689E
:102540005868FB681B6C1A46B9680EF0D3FFFB682D
:102550005A68FB681B6C1A44FB685A60FB685A682F
:10256000FB689B689A422BD3FB681A68FB685A6029
:1025700026E0FB68D868FB681B6C1A46B9680EF049
:10258000B9FFFB68DA68FB681B6C5B421A44FB68A6
:10259000DA60FB68DA68FB681B689A4207D2FB685E
:1025A0009A68FB681B6C5B421A44FB68DA607B68C4
:1025B000022B05D13B69002B02D03B69013B3B61FB
:1025C0003B695A1CFB689A637B6918461837BD46FD
:1025D00080BD80B582B000AF786039607B681B6CCD
:1025E000002B18D07B68DA687B681B6C1A447B6808
:1025F000DA607B68DA687B689B689A4203D37B6801
:102600001A687B68DA607B68D9687B681B6C1A463D
:1026100038680EF06FFF00BF0837BD4680BD80B53B
:1026200084B000AF786003F0BDFC7B6893F8453060
:10263000FB7311E07B685B6A002B12D07B6824334C
:10264000184600F015FE0346002B01D000F052FFA3
:10265000FB7B013BDBB2FB7397F90F30002BE9DC0E
:1026600000E000BF7B68FF2283F8452003F0CAFC2E
:1026700003F098FC7B6893F84430BB7311E07B68EF
:102680001B69002B12D07B681033184600F0F0FD58
:102690000346002B01D000F02DFFBB7B013BDBB2DA
:1026A000BB7397F90E30002BE9DC00E000BF7B68BC
:1026B000FF2283F8442003F0A5FC00BF1037BD467D
:1026C00080BD80B584B000AF786003F06BFC7B68A0
:1026D0009B6B002B02D10123FB6001E00023FB6018
:1026E00003F090FCFB6818461037BD4680BD80B5EE
:1026F00084B000AF786003F055FC7B689A6B7B6810
:10270000DB6B9A4202D10123FB6001E00023FB60F6
:1027100003F078FCFB6818461037BD4680BD00000A
:1027200080B485B000AF786039600023FB6014E0AE
:102730000F4AFB6852F83330002B0BD10C49FB6871
:102740003A6841F833200A4AFB68DB0013447A6890
:102750005A6006E0FB680133FB60FB68072BE7D992
:1027600000BF00BF1437BD465DF8047B704700BF53
:10277000D83D002080B485B000AF78600023FB60B6
:1027800016E0104AFB68DB0013445B687A689A42E3
:102790000BD10C4AFB68002142F83310094AFB6850
:1027A000DB00134400225A6006E0FB680133FB6043
:1027B000FB68072BE5D900BF00BF1437BD465DF8A5
:1027C000047B7047D83D002080B586B000AFF8602C
:1027D000B9607A60FB687B6103F0E4FB7B6993F886
:1027E00044305BB2B3F1FF3F03D17B69002283F831
:1027F00044207B6993F845305BB2B3F1FF3F03D1CE
:102800007B69002283F8452003F0FCFB7B699B6B0E
:10281000002B06D17B6924337A68B968184600F02A
:10282000FBFC7869FFF7FBFE00BF1837BD4680BD93
:1028300080B58EB004AFF860B9607A603B607B6BA6
:10284000002B0AD14FF0500383F31188BFF36F8F31
:10285000BFF34F8F3B6200BFFEE7BB6B002B0AD17B
:102860004FF0500383F31188BFF36F8FBFF34F8F87
:10287000FB6100BFFEE764233B613B69642B0AD028
:102880004FF0500383F31188BFF36F8FBFF34F8F67
:10289000BB6100BFFEE73B69BB6B002B1ED07B6BAF
:1028A000002B1BD0BB6B7B627B6A7A6B1A637B6AE3
:1028B000022283F86120002303937B6A029307F1CD
:1028C000140301933B6B00933B687A68B968F8681E
:1028D00000F050F8786A00F0E3F801E000237B6133
:1028E0007B6918462837BD4680BD80B58CB004AFE3
:1028F000F860B9603B601346FB80FB889B0018467C
:1029000003F036F878617B69002B0ED0642003F069
:102910002FF8F861FB69002B03D0FB697A691A6311
:1029200005E0786903F0F0F801E00023FB61FB6942
:10293000002B17D0FB69002283F86120FA8800235E
:102940000393FB690293FB6A0193BB6A00933B68A4
:10295000B968F86800F00EF8F86900F0A1F80123F2
:10296000BB6102E04FF0FF33BB61BB691846203703
:10297000BD4680BD80B588B000AFF860B9607A60B0
:102980003B603B6B186B7B689B001A46A5210EF0E1
:10299000C8FC3B6B1A6B7B6803F18043013B9B00D7
:1029A0001344BB61BB6923F00703BB61BB6903F040
:1029B0000703002B0AD04FF0500383F31188BFF3B5
:1029C0006F8FBFF34F8F7B6100BFFEE73B6BBA6930
:1029D0005A64BB68002B1FD00023FB6112E0BA6869
:1029E000FB69134419783A6BFB69134434330A4684
:1029F0001A70BA68FB6913441B78002B06D0FB6978
:102A00000133FB61FB690F2BE9D900E000BF3B6B91
:102A1000002283F8432003E03B6B002283F834203C
:102A2000BB6A372B01D93723BB623B6BBA6ADA62C8
:102A30003B6BBA6A1A653B6B00225A653B6B0433E9
:102A40001846FEF717FE3B6B18331846FEF712FECA
:102A50003B6B3A6B1A61BB6AC3F138023B6B9A61FC
:102A60003B6B3A6B5A623B6B00229A653B6B0022D0
:102A7000DA653B6B002283F860203A68F968B86930
:102A800003F060F902463B6B1A60FB6A002B02D030
:102A9000FB6A3A6B1A6000BF2037BD4680BD00005C
:102AA00080B582B000AF786003F07CFA2D4B1B68D4
:102AB00001332C4A13602C4B1B68002B09D12A4A86
:102AC0007B681360274B1B68012B10D100F08CFD35
:102AD0000DE0264B1B68002B09D1234B1B68DA6ADB
:102AE0007B68DB6A9A4202D81F4A7B681360204BDE
:102AF0001B6801331E4A13601D4B1A687B689A6479
:102B00007B68DA6A1B4B1B689A4203D97B68DB6AD5
:102B1000184A13607B68DA6A13469B0013449B00D3
:102B2000154A1A447B68043319461046FEF7AFFD78
:102B300003F068FA0D4B1B68002B0ED00A4B1B6884
:102B4000DA6A7B68DB6A9A4207D20C4B4FF08052FC
:102B50001A60BFF34F8FBFF36F8F00BF0837BD46BA
:102B600080BD00BFEC420020183E0020F84200204B
:102B700008430020F44200201C3E002004ED00E049
:102B800080B584B000AF78600023FB607B68002BC9
:102B900017D0134B1B68002B0AD04FF0500383F360
:102BA0001188BFF36F8FBFF34F8FBB6000BFFEE78D
:102BB00000F082F80021786801F076F900F0C2F8A0
:102BC000F860FB68002B07D1064B4FF080521A606B
:102BD000BFF34F8FBFF36F8F00BF1037BD4680BD6F
:102BE0001443002004ED00E080B58AB004AF002358
:102BF000BB6000237B603A46391D07F10803184685
:102C000002F082FE39687B68BA6802920193002361
:102C1000009300230A4622492248FFF709FE034693
:102C2000214A1360204B1B68002B02D001237B61DB
:102C300001E000237B617B69012B02D101F088F95F
:102C400078617B69012B18D14FF0500383F3118811
:102C5000BFF36F8FBFF34F8F3B6100BF134B4FF03C
:102C6000FF321A60124B01221A60124B00221A60C6
:102C7000FDF74EFB03F0F4F80EE07B69B3F1FF3F84
:102C80000AD14FF0500383F31188BFF36F8FBFF366
:102C90004F8FFB6000BFFEE700BF1837BD4680BD09
:102CA000602901080D350008104300200C43002066
:102CB000F8420020F042002080B400AF044B1B68B3
:102CC0000133034A136000BFBD465DF8047B7047C3
:102CD0001443002080B483B000AF00233B60144B4A
:102CE0001B68002B01D001233B60124B1B68DB6A81
:102CF000002B02D000237B6012E00F4B1B68012BDE
:102D000002D900237B600BE03B68002B02D000233C
:102D10007B6005E0094B1A68094B1B68D31A7B607E
:102D20007B6818460C37BD465DF8047B704700BFD2
:102D3000F4420020183E00201C3E00200C430020DE
:102D4000F042002080B584B000AF0023FB60002378
:102D5000BB60424B1B68002B0AD14FF0500383F33A
:102D60001188BFF36F8FBFF34F8F3B6000BFFEE74B
:102D700003F018F9394B1B68013B384A1360374B95
:102D80001B68002B62D1364B1B68002B5ED02FE0F6
:102D9000344BDB68DB68FB60FB6818331846FEF7D2
:102DA000D3FCFB6804331846FEF7CEFCFB68DA6AF6
:102DB0002D4B1B689A4203D9FB68DB6A2A4A1360D1
:102DC000FB68DA6A13469B0013449B00274A1A44A7
:102DD000FB68043319461046FEF759FCFB68DA6AB3
:102DE000234B1B68DB6A9A4202D3224B01221A60F2
:102DF0001C4B1B68002BCBD1FB68002B01D000F0D3
:102E000091FC1D4B1B687B607B68002B10D000F091
:102E10006FF80346002B02D0164B01221A607B6824
:102E2000013B7B607B68002BF1D1134B00221A60C1
:102E3000104B1B68002B09D00123BB600F4B4FF0D8
:102E400080521A60BFF34F8FBFF36F8F03F0DAF831
:102E5000BB6818461037BD4680BD00BF1443002034
:102E6000EC420020AC420020F44200201C3E002036
:102E7000183E002000430020FC42002004ED00E04A
:102E800080B483B000AF054B1B687B607B6818463D
:102E90000C37BD465DF8047B704700BFF042002050
:102EA00080B485B000AF78600F4B1A687B681A4415
:102EB0000E4B1B689A420AD94FF0500383F31188D6
:102EC000BFF36F8FBFF34F8FFB6000BFFEE7064B72
:102ED0001A687B681344044A136000BF1437BD4668
:102EE0005DF8047B704700BFF04200200C430020D7
:102EF00080B586B000AF00237B614F4B1B68002B71
:102F000040F08F804D4B1B6801333B614B4A3B695E
:102F100013603B69002B20D1494B1B681B68002BB9
:102F20000AD04FF0500383F31188BFF36F8FBFF3C4
:102F30004F8F3B6000BFFEE7414B1B68FB60414B7E
:102F40001B683F4A13603F4AFB6813603E4B1B6897
:102F500001333D4A136000F0E5FB3C4B1B683A69C6
:102F60009A4249D3364B1B681B68002B04D1374B60
:102F70004FF0FF321A603FE0314B1B68DB68DB68C3
:102F8000BB60BB685B687B603A697B689A4203D22E
:102F90002E4A7B6813602FE0BB6804331846FEF7A7
:102FA000D3FBBB689B6A002B04D0BB681833184660
:102FB000FEF7CAFBBB68DA6A254B1B689A4203D945
:102FC000BB68DB6A224A1360BB68DA6A13469B005F
:102FD00013449B001F4A1A44BB6804331946104629
:102FE000FEF755FBBB68DA6A1B4B1B68DB6A9A422B
:102FF000B8D301237B61B5E7174B1B68DA6A154923
:1030000013469B0013449B000B441B68012B01D902
:1030100001237B61114B1B68002B07D001237B61CF
:1030200004E00F4B1B6801330D4A13607B6918469F
:103030001837BD4680BD00BF14430020F042002079
:10304000A4420020A8420020044300200C4300209A
:10305000F44200201C3E0020183E002000430020C7
:10306000FC42002080B584B000AF344B1B68002BBD
:1030700003D0334B01221A605BE0314B00221A600F
:10308000FDF750F903461A462E4B1A602D4B1A686D
:103090002D4B1B689A4209D92C4B1B68996D294A04
:1030A0001068294A1268821A0A449A65254B1B68DF
:1030B000254A1360264B1B68FB6010E0FB68002B61
:1030C0000AD14FF0500383F31188BFF36F8FBFF322
:1030D0004F8F7B6000BFFEE7FB68013BFB601D4933
:1030E000FA6813469B0013449B000B441B68002B9B
:1030F000E4D0FA6813469B0013449B00154A13441E
:10310000BB60BB685B685A68BB685A60BB685A683A
:10311000BB6808339A4204D1BB685B685A68BB68D5
:103120005A60BB685B68DB68084A1360084AFB6842
:10313000136000BF1037BD4680BD00BF14430020A0
:10314000004300201C43002018430020183E0020AC
:10315000F44200201C3E002080B584B000AF7860AF
:1031600039607B68002B0AD14FF0500383F311883C
:10317000BFF36F8FBFF34F8FFB6000BFFEE7074BBE
:103180001B68183319467868FEF7A5FA01213868DC
:1031900000F08AFE00BF1037BD4680BD183E0020FB
:1031A00080B586B000AFF860B9607A60FB68002B2C
:1031B0000AD14FF0500383F31188BFF36F8FBFF331
:1031C0004F8F7B6100BFFEE7114B1B68002B0AD1BC
:1031D0004FF0500383F31188BFF36F8FBFF34F8F0E
:1031E0003B6100BFFEE70B4B1B68BA6842F0004230
:1031F0009A61084B1B6818331946F868FEF747FABE
:103200000121786800F050FE00BF1837BD4680BD30
:1032100014430020183E002080B586B000AFF8604F
:10322000B9607A60FB68002B0AD14FF0500383F33A
:103230001188BFF36F8FBFF34F8F7B6100BFFEE735
:103240000A4B1B6818331946F868FEF720FA7B68AA
:10325000002B02D04FF0FF33BB607968B86800F0F4
:1032600023FE00BF1837BD4680BD00BF183E0020BA
:1032700080B586B000AF78607B68DB68DB683B6157
:103280003B69002B0AD14FF0500383F31188BFF341
:103290006F8FBFF34F8FFB6000BFFEE73B691833B2
:1032A0001846FEF751FA1F4B1B68002B1FD13B69D4
:1032B00004331846FEF748FA3B69DA6A1A4B1B6872
:1032C0009A4203D93B69DB6A174A13603B69DA6AA1
:1032D00013469B0013449B00144A1A443B69043371
:1032E00019461046FEF7D3F900F01CFA05E03B69D9
:1032F000183319460E48FEF7CAF93B69DA6A0D4BD6
:103300001B68DB6A9A4205D901237B610A4B0122C3
:103310001A6001E000237B617B6918461837BD46BF
:1033200080BD00BF14430020F44200201C3E00205A
:10333000AC420020183E00200043002080B586B03B
:1033400000AF786039602A4B1B68002B0AD14FF020
:10335000500383F31188BFF36F8FBFF34F8F3B612F
:1033600000BFFEE73B6843F000427B681A607B6861
:10337000DB687B617B69002B0AD14FF0500383F33C
:103380001188BFF36F8FBFF34F8FFB6000BFFEE765
:103390007868FEF7D9F900F0C5F97B69043318465F
:1033A000FEF7D2F97B69DA6A124B1B689A4203D99D
:1033B0007B69DB6A0F4A13607B69DA6A13469B00FC
:1033C00013449B000C4A1A447B6904331946104687
:1033D000FEF75DF97B69DA6A084B1B68DB6A9A4283
:1033E00002D9074B01221A6000BF1837BD4680BDC5
:1033F00014430020F44200201C3E0020183E002010
:103400000043002080B483B000AF7860064B1A6898
:103410007B681A60054B1A687B685A6000BF0C37DE
:10342000BD465DF8047B704704430020F042002055
:1034300080B588B000AF786039607B68002B0AD116
:103440004FF0500383F31188BFF36F8FBFF34F8F9B
:103450003B6100BFFEE73B68002B0AD14FF05003F1
:1034600083F31188BFF36F8FBFF34F8FFB6000BFF3
:10347000FEE702F097FD1D4B1B68BB617B685B6834
:10348000BA69D31A7B613B681B68B3F1FF3F02D175
:103490000023FB6123E07B681A68154B1B689A4286
:1034A00007D07B685B68BA699A4202D30123FB614B
:1034B00015E03B681B687A699A420BD23B681A6830
:1034C0007B69D21A3B681A607868FFF79BFF00237C
:1034D000FB6104E03B6800221A600123FB6102F0FB
:1034E00091FDFB6918462037BD4680BDF0420020A3
:1034F0000443002080B400AF034B01221A6000BFD8
:10350000BD465DF8047B70470043002080B584B061
:1035100000AF786000F0A8F8184B1B68012B07D9A2
:10352000174B4FF080521A60BFF34F8FBFF36F8F6E
:10353000FFF7D0FBF860FB68012BEBD9FFF7BCFB72
:10354000104B1A68104B1B689A420AD24FF0500376
:1035500083F31188BFF36F8FBFF34F8FBB6000BF42
:10356000FEE7FFF7B7FBF860FB68012B02D9F868AC
:1035700002F0CCFDFFF7E6FBCCE700BF1C3E0020CD
:1035800004ED00E00C430020F042002080B483B042
:1035900000AF01233B600123FB710F4B1B68002B25
:1035A00002D00023FB7110E00C4B1B68002B02D0F3
:1035B0000023FB7109E00A4B1A680A4B19683B6843
:1035C000CB1A9A4201D10223FB71FB7918460C37C2
:1035D000BD465DF8047B7047AC42002000430020EC
:1035E000D8420020EC42002080B582B000AF00231A
:1035F0007B600CE07A6813469B0013449B00124AE0
:1036000013441846FEF716F87B6801337B607B682D
:10361000372BEFD90D48FEF70DF80D48FEF70AF8E5
:103620000C48FEF707F80C48FEF704F80B48FEF7C5
:1036300001F80B4B054A1A600A4B054A1A6000BF95
:103640000837BD4680BD00BF1C3E00207C420020E4
:1036500090420020AC420020C0420020D84200200E
:10366000A4420020A842002080B582B000AF19E03B
:1036700002F098FC104BDB68DB687B607B680433EE
:103680001846FEF761F80D4B1B68013B0B4A1360AF
:103690000B4B1B68013B0A4A136002F0B3FC7868CD
:1036A00000F010F8064B1B68002BE1D100BF00BFF3
:1036B0000837BD4680BD00BFC0420020EC4200205C
:1036C000D442002080B584B000AF78607B6893F866
:1036D0006130002B08D17B681B6B184602F014FA8E
:1036E000786802F011FA18E07B6893F86130012BDA
:1036F00003D1786802F008FA0FE07B6893F8613034
:10370000022B0AD04FF0500383F31188BFF36F8F61
:10371000BFF34F8FFB6000BFFEE700BF1037BD4611
:1037200080BD000080B483B000AF0C4B1B681B68E9
:10373000002B04D10A4B4FF0FF321A6008E0074B10
:103740001B68DB68DB687B607B685B68044A13602E
:1037500000BF0C37BD465DF8047B7047A4420020D3
:103760000C43002080B483B000AF054B1B687B6026
:103770007B6818460C37BD465DF8047B704700BF78
:10378000183E002080B483B000AF0B4B1B68002BA9
:1037900002D101237B6008E0084B1B68002B02D19B
:1037A00002237B6001E000237B607B6818460C37B6
:1037B000BD465DF8047B7047F842002014430020AA
:1037C00080B584B000AF78607B68BB600023FB608D
:1037D0007B68002B51D0BB68DA6A2A4B1B68DB6A16
:1037E0009A4241D2BB689B69002B06DB254B1B68C4
:1037F000DB6AC3F13802BB689A61BB685969BB6870
:10380000DA6A13469B0013449B001F4A13449942F3
:1038100022D1BB6804331846FDF796FF194B1B688D
:10382000DA6ABB68DA62BB68DA6A184B1B689A42CC
:1038300003D9BB68DB6A154A1360BB68DA6A1346B2
:103840009B0013449B00104A1A44BB68043319467A
:103850001046FDF71CFF04E00A4B1B68DA6ABB68E0
:10386000DA620123FB6008E0BB681A6D054B1B6838
:10387000DB6A9A4201D20123FB60FB6818461037CD
:10388000BD4680BD183E00201C3E0020F4420020B2
:1038900080B586B000AF78607B683B6100237B61B8
:1038A0007B68002B56D02E4B1B683A699A420AD08F
:1038B0004FF0500383F31188BFF36F8FBFF34F8F27
:1038C000FB6000BFFEE73B695B6D002B0AD14FF048
:1038D000500383F31188BFF36F8FBFF34F8FBB602B
:1038E00000BFFEE73B695B6D5A1E3B695A653B6949
:1038F000DA6A3B691B6D9A422CD03B695B6D002BE9
:1039000028D13B6904331846FDF71EFF3B691A6D49
:103910003B69DA623B69DB6AC3F138023B699A6151
:103920003B69DA6A0F4B1B689A4203D93B69DB6A31
:103930000C4A13603B69DA6A13469B0013449B00F0
:10394000094A1A443B69043319461046FDF79FFEA5
:1039500001237B617B6918461837BD4680BD00BFD7
:10396000183E0020F44200201C3E002080B588B0A4
:1039700000AF786039607B68BB6101237B617B6845
:10398000002B6AD0BB695B6D002B0AD14FF050034E
:1039900083F31188BFF36F8FBFF34F8FFB6000BFBE
:1039A000FEE7BB691B6D3A689A4202D93B68FB612E
:1039B00002E0BB691B6DFB61BB69DB6AFA699A4275
:1039C0004BD0BB695B6D7A699A4246D1254B1B6827
:1039D000BA699A420AD14FF0500383F31188BFF3BA
:1039E0006F8FBFF34F8FBB6000BFFEE7BB69DB6A21
:1039F0003B61BB69FA69DA62BB699B69002B04DB36
:103A0000FB69C3F13802BB699A61BB6959693A69BC
:103A100013469B0013449B00134A134499421CD144
:103A2000BB6904331846FDF78FFEBB69DA6A0F4B9A
:103A30001B689A4203D9BB69DB6A0C4A1360BB69F5
:103A4000DA6A13469B0013449B00074A1A44BB6979
:103A5000043319461046FDF71AFE00BF2037BD4655
:103A600080BD00BF183E00201C3E0020F442002014
:103A700080B483B000AF094B1B689B697B60074B28
:103A80001B68DA6A054B1B68C2F138029A617B68D1
:103A900018460C37BD465DF8047B7047183E002081
:103AA00080B400AF074B1B68002B04D0054B1B688C
:103AB0005A6D01325A65034B1B681846BD465DF8C6
:103AC000047B7047183E002080B586B000AFF860D8
:103AD000B9607A603B6002F065FA264B1B6893F888
:103AE0006030DBB2022B1AD0224B1B68D96DFA680A
:103AF000D2430A40DA651F4B1B68012283F860201D
:103B00003B68002B0BD00121386800F0CDF91A4B2F
:103B10004FF080521A60BFF34F8FBFF36F8F02F0E8
:103B200071FA02F03FFA7B68002B04D0114B1B683E
:103B3000DA6D7B681A600F4B1B6893F86030DBB25C
:103B4000022B02D000237B6108E00A4B1B68D96D71
:103B5000BA68D2430A40DA6501237B61054B1B68D2
:103B6000002283F8602002F04DFA7B69184618376E
:103B7000BD4680BD183E002004ED00E080B58AB04F
:103B800000AFF860B9603B601346FB7101237B62B4
:103B9000FB68002B0AD14FF0500383F31188BFF369
:103BA0006F8FBFF34F8FBB6100BFFEE7FB683B62C7
:103BB00002F0F8F93B68002B03D03B6ADA6D3B68F2
:103BC0001A603B6A93F86030FB773B6A022283F805
:103BD0006020FB79042B28D801A252F823F000BF03
:103BE0004B3C0008F53B0008033C00080F3C000874
:103BF000173C00083B6ADA6DBB681A433B6ADA651A
:103C000026E03B6ADB6D5A1C3B6ADA6520E03B6AC2
:103C1000BA68DA651CE0FB7F022B03D03B6ABA6806
:103C2000DA6515E000237B6212E03B6ADB6DB3F1DD
:103C3000FF3F0CD04FF0500383F31188BFF36F8F19
:103C4000BFF34F8F7B6100BFFEE700BF00E000BF06
:103C5000FB7F012B3CD13B6A04331846FDF774FD12
:103C60003B6ADA6A1E4B1B689A4203D93B6ADB6ADD
:103C70001B4A13603B6ADA6A13469B0013449B009D
:103C8000184A1A443B6A043319461046FDF7FFFCF4
:103C90003B6A9B6A002B0AD04FF0500383F31188D4
:103CA000BFF36F8FBFF34F8F3B6100BFFEE7FFF79E
:103CB00039FD3B6ADA6A0C4B1B68DB6A9A4207D90A
:103CC0000A4B4FF080521A60BFF34F8FBFF36F8FD4
:103CD00002F098F97B6A18462837BD4680BD00BFC0
:103CE000F44200201C3E0020183E002004ED00E0BD
:103CF00080B58EB000AFF860B9603B601346FB71D1
:103D000001237B63FB68002B0AD14FF0500383F340
:103D10001188BFF36F8FBFF34F8F7B6200BFFEE749
:103D200002F006FBFB683B63EFF311824FF0500398
:103D300083F31188BFF36F8FBFF34F8F3A62FB613C
:103D40003B6AFB623B68002B03D03B6BDA6D3B6840
:103D50001A603B6B93F8603087F82B303B6B022284
:103D600083F86020FB79042B28D801A252F823F0B5
:103D7000DD3D0008853D0008933D00089F3D00089B
:103D8000A73D00083B6BDA6DBB681A433B6BDA65F5
:103D900027E03B6BDB6D5A1C3B6BDA6521E03B6B2C
:103DA000BA68DA651DE097F82B30022B03D03B6B25
:103DB000BA68DA6515E000237B6312E03B6BDB6DCC
:103DC000B3F1FF3F0CD04FF0500383F31188BFF3E2
:103DD0006F8FBFF34F8FBB6100BFFEE700BF00E0F6
:103DE00000BF97F82B30012B46D13B6B9B6A002B11
:103DF0000AD04FF0500383F31188BFF36F8FBFF3E6
:103E00004F8F7B6100BFFEE7214B1B68002B1DD14C
:103E10003B6B04331846FDF797FC3B6BDA6A1D4B8E
:103E20001B689A4203D93B6BDB6A1A4A13603B6BEF
:103E3000DA6A13469B0013449B00174A1A443B6BF3
:103E4000043319461046FDF722FC05E03B6B18339E
:103E500019461248FDF71BFC3B6BDA6A104B1B68D6
:103E6000DB6A9A4208D93B6C002B02D03B6C0122E2
:103E70001A600C4B01221A60FB6A3B613B6983F3B9
:103E8000118800BF7B6B18463837BD4680BD00BF28
:103E900014430020F44200201C3E0020AC420020CD
:103EA000183E00200043002080B584B000AF786049
:103EB0003960214B1B68FB60204B1B68043318469C
:103EC000FDF742FC7B68B3F1FF3F0AD13B68002B52
:103ED00007D01A4B1B68043319461948FDF7D7FB66
:103EE00026E0FA687B681344BB60144B1B68BA6811
:103EF0005A60BA68FB689A4209D2124B1A680F4B93
:103F00001B68043319461046FDF7E5FB10E00E4B25
:103F10001A680A4B1B68043319461046FDF7DBFB91
:103F20000A4B1B68BA689A4202D2084ABB681360FF
:103F300000BF1037BD4680BDF0420020183E002073
:103F4000D8420020A8420020A44200200C430020B8
:103F500080B58AB004AF00237B6100F0A1FB1C4B4D
:103F60001B68002B21D00023FB600023BB603A1D9F
:103F700007F1080107F10C03184601F0DFFC79682E
:103F8000BB68FA68029201930223009300230A4659
:103F900010491148FEF74CFC0346104A13600F4BC2
:103FA0001B68002B01D001237B617B69002B0AD1A8
:103FB0004FF0500383F31188BFF36F8FBFF34F8F20
:103FC0003B6100BFFEE77B6918461837BD4680BDE0
:103FD000504300206829010849420008544300204A
:103FE00080B588B002AFF860B9607A603B602C2081
:103FF00001F0BEFC78617B69002B0DD07B6900224B
:1040000083F828207B6901933B6A00933B687A68B8
:10401000B968F86800F043F87B6918461837BD4660
:1040200080BD80B58AB002AFF860B9607A603B604D
:104030002C233B613B692C2B0AD04FF0500383F3B8
:104040001188BFF36F8FBFF34F8FBB6100BFFEE7D7
:104050003B69FB6A002B0AD14FF0500383F31188B0
:10406000BFF36F8FBFF34F8F7B6100BFFEE7FB6A2B
:10407000FB61FB69002B0DD0FB69022283F828202D
:10408000FB690193BB6A00933B687A68B968F8687A
:1040900000F005F8FB6918462037BD4680BD80B5A5
:1040A00086B000AFF860B9607A603B60BB68002BF7
:1040B0000AD14FF0500383F31188BFF36F8FBFF322
:1040C0004F8F7B6100BFFEE77B6A002B1ED000F0A4
:1040D000E7FA7B6AFA681A607B6ABA689A617B6A57
:1040E0003A68DA617B6A3A6A1A627B6A0433184674
:1040F000FDF7C0FA7B68002B08D07B6A93F8283064
:1041000043F00403DAB27B6A83F8282000BF183733
:10411000BD4680BD80B58AB000AFF860B9607A60F6
:104120003B6000237B62FB68002B0AD14FF05003F9
:1041300083F31188BFF36F8FBFF34F8F3B6200BFD4
:10414000FEE71A4B1B68002B2AD0BB683B617B68DB
:104150007B61FB68BB61BB68052B18DCFFF712FBBA
:104160000346022B09D1114B186807F110010023F7
:104170003A6BFDF7BBFC786212E00C4B186807F154
:10418000100100230022FDF7B1FC786208E0074B24
:10419000186807F1100100233A68FDF7A5FD786261
:1041A0007B6A18462837BD4680BD00BF50430020BB
:1041B00080B588B002AF78603960224B1B68DB683D
:1041C000DB687B617B6904331846FDF7BDFA7B69C8
:1041D00093F8283003F00403002B22D07B699A69FE
:1041E0007B68D1187B683A68786900F0D1F803469B
:1041F000002B1FD00023009300237A6800217869E8
:10420000FFF788FF38613B69002B13D14FF0500353
:1042100083F31188BFF36F8FBFF34F8FFB6000BF35
:10422000FEE77B6993F8283023F00103DAB27B695B
:1042300083F828207B691B6A7869984700BF183784
:10424000BD4680BD4843002080B584B000AF786093
:1042500007F10803184600F057F8F860BB681946E4
:10426000F86800F003F800F0D5F8F1E780B584B005
:1042700000AF78603960FEF71FFD07F108031846AC
:1042800000F066F8F860BB68002B30D13B68002B6B
:104290000AD17A68FB689A4206D8FEF753FDF9689E
:1042A0007868FFF785FF24E03B68002B08D0134BAC
:1042B0001B681B68002B01D1012300E000233B6039
:1042C0000F4B18687A68FB68D31A3A681946FEF7EC
:1042D0007BFAFEF737FD0346002B0AD1094B4FF05E
:1042E00080521A60BFF34F8FBFF36F8F01E0FEF76C
:1042F00029FD00BF1037BD4680BD00BF4C430020E4
:104300005043002004ED00E080B485B000AF786039
:104310000E4B1B681B68002B01D1012200E000221C
:104320007B681A607B681B68002B05D1074B1B68F4
:10433000DB681B68FB6001E00023FB60FB6818463C
:104340001437BD465DF8047B704700BF484300202A
:1043500080B584B000AF7860FEF792FDF8600B4B3B
:104360001B68FA689A4205D200F036F97B68012290
:104370001A6002E07B6800221A60044AFB6813603E
:10438000FB6818461037BD4680BD00BF584300206B
:1043900080B586B000AFF860B9607A603B600023FA
:1043A0007B61FB68BA685A60FB68FA681A61BA6890
:1043B0007B689A4212D87A683B68D21AFB689B697C
:1043C0009A4202D301237B611BE0104B1A68FB6801
:1043D000043319461046FDF77EF912E07A683B680F
:1043E0009A4206D2BA683B689A4202D301237B61A3
:1043F00007E0074B1A68FB68043319461046FDF7BF
:104400006AF97B6918461837BD4680BD4C430020C9
:104410004843002080B58EB002AFCAE07B68002B15
:1044200018DA3B1D0433FB62FB6A002B0AD14FF004
:10443000500383F31188BFF36F8FBFF34F8FFB617E
:1044400000BFFEE7FB6A1B68FA6A5068FA6A926866
:10445000114698477B68002BC0F2AB80FB68BB62BB
:10446000BB6A5B69002B04D0BB6A04331846FDF7B6
:104470006BF93B461846FFF76BFF78627B68092BA8
:1044800000F2968001A252F823F000BFB544000864
:10449000B5440008B5440008294500083D4500081A
:1044A00087450008B5440008B544000829450008C0
:1044B0003D450008BB6A93F8283043F00103DAB2A7
:1044C000BB6A83F82820BA68BB6A9B69D118BB68AD
:1044D0007A6AB86AFFF75CFF0346002B69D0BB6AB3
:1044E0001B6AB86A9847BB6A93F8283003F0040344
:1044F000002B5ED0BA68BB6A9B691A440023009304
:1045000000230021B86AFFF705FE38623B6A002BE2
:104510004FD14FF0500383F31188BFF36F8FBFF378
:104520004F8FBB6100BFFEE7BB6A93F8283023F0D2
:104530000103DAB2BB6A83F828203AE0BB6A93F839
:10454000283043F00103DAB2BB6A83F82820BA6846
:10455000BB6A9A61BB6A9B69002B0AD14FF050037A
:1045600083F31188BFF36F8FBFF34F8F7B6100BF61
:10457000FEE7BB6A9A697B6AD1187B6A7A6AB86A75
:10458000FFF706FF15E0BB6A93F8283003F002033B
:10459000002B03D1B86A01F0B7FA0AE0BB6A93F8BE
:1045A000283023F00103DAB2BB6A83F8282000E048
:1045B00000BF084B1B68391D00221846FDF7BCFCE4
:1045C0000346002B7FF42AAF00BF00BF3037BD4643
:1045D00080BD00BF5043002080B588B002AF48E0E6
:1045E0002D4B1B68DB681B683B612B4B1B68DB6832
:1045F000DB68FB60FB6804331846FDF7A5F8FB6831
:104600001B6AF8689847FB6893F8283003F00403A6
:10461000002B2ED0FB689B693A691344BB60BA68D3
:104620003B699A420ED9FB68BA685A60FB68FA681F
:104630001A61194B1A68FB68043319461046FDF7D6
:104640004AF816E00023009300233A690021F86835
:10465000FFF760FD78607B68002B0AD14FF05003B4
:1046600083F31188BFF36F8FBFF34F8F3B6000BFA1
:10467000FEE7094B1B681B68002BB1D1064B1B687A
:104680007B61064B1B68044A1360044A7B69136014
:1046900000BF1837BD4680BD484300204C43002072
:1046A00080B582B002AF01F07DFC154B1B68002B7A
:1046B00020D11448FCF7BEFF1348FCF7BBFF134B97
:1046C000104A1A60124B104A1A6000230093114BD3
:1046D000114A10210A20FDF7C9F80346084A136061
:1046E000074B1B68002B05D0054B1B680B49184670
:1046F000FEF716F801F086FC00BFBD4680BD00BF86
:104700005043002020430020344300204843002031
:104710004C430020FC4300205C430020702901082A
:1047200080B586B000AF78607B687B617B68002BCA
:104730000AD14FF0500383F31188BFF36F8FBFF39B
:104740004F8FFB6000BFFEE701F02CFC7B69DB694B
:104750003B6101F057FC3B6918461837BD4680BDE8
:1047600080B58AB000AFF860B9607A603B606FF0E6
:1047700001037B61FB68BB61BB68FB617B683B62DB
:10478000064B186807F1140100233A68FDF7ACFAEC
:1047900078627B6A18462837BD4680BD50430020AA
:1047A00080B483B000AF03463960FB7197F90730DE
:1047B000002B0ADB3B68DAB20C4997F9073012018B
:1047C000D2B20B4483F800230AE03B68DAB208490E
:1047D000FB7903F00F03043B1201D2B20B441A76AB
:1047E00000BF0C37BD465DF8047B704700E100E078
:1047F00000ED00E080B500AF054B1B68FEF7C2FF7F
:104800000346012B01D001F05FFC00BF80BD00BF5B
:1048100010E000E080B500AF00216FF00400FFF76A
:10482000BFFF00BF80BD000080B483B000AFEFF3D6
:1048300005833B603B68002B03D06FF005037B6072
:104840000CE00A4B1B68002B05D1084B01221A60B3
:1048500000237B6002E04FF0FF337B607B681846EB
:104860000C37BD465DF8047B704700BF4C44002008
:1048700080B582B000AFEFF305833B603B68002B4F
:1048800003D06FF005037B6010E00B4B1B68012B1E
:1048900009D1FFF7BFFF084B02221A60FEF7A4F907
:1048A00000237B6002E04FF0FF337B607B6818469B
:1048B0000837BD4680BD00BF4C44002080B58EB097
:1048C00004AFF860B9607A6000233B61EFF30583C1
:1048D0007B617B69002B7ED1FB68002B7BD0802322
:1048E0003B621823FB6100237B624FF0FF33BB6107
:1048F0007B68002B45D07B681B68002B02D07B684F
:104900001B687B627B689B69002B02D07B689B697C
:10491000FB61FB69002B08D0FB69382B05D87B684D
:104920005B6803F00103002B01D0002354E07B6897
:104930005B69002B03D07B685B699B083B627B68EB
:104940009B68002B0ED07B68DB68632B0AD97B68E1
:104950001B69002B06D07B685B69002B02D001230A
:10496000BB6110E07B689B68002B0CD17B68DB6827
:10497000002B08D17B681B69002B04D10023BB618D
:1049800001E00023BB61BB69012B10D17B681B696F
:104990007A68926802920193FB690093BB683A6A55
:1049A000796AF868FDF744FF03463B6113E0BB6991
:1049B000002B10D13B6A9AB207F110030193FB69F7
:1049C0000093BB68796AF868FDF78FFF0346012BF7
:1049D00001D000233B613B6918462837BD4680BDA6
:1049E00080B582B000AFFEF7BDFE78607B681846E8
:1049F0000837BD4680BD000080B588B002AF786042
:104A000039607B687B617B69002B02D03B68002B9F
:104A100003DA6FF00303FB6035E04FF0FF33FB6018
:104A2000EFF305833B613B69002B1FD00023BB6084
:104A300007F1080300930023012239687869FFF722
:104A400057F907F10C030022009200220021786937
:104A5000FFF74EF9BB68002B15D00D4B4FF080527D
:104A60001A60BFF34F8FBFF36F8F0CE0002301225A
:104A700039687869FFF782F807F10C0300220021FA
:104A80007869FFF77BF8FB6818461837BD4680BD8C
:104A900004ED00E080B586B000AF7860EFF30583E9
:104AA000FB60FB68002B03D06FF005037B612AE0FD
:104AB0007B68002B03DA6FF003037B6123E0FEF7D2
:104AC00051FE386107F10803002200213869FFF721
:104AD00055F80346012B13D1BB687B617B68DA4331
:104AE000BB681340BB60B968002303223869FFF735
:104AF00045F80346012B06D04FF0FF337B6102E0FF
:104B00004FF0FF337B617B6918461837BD4680BD87
:104B100080B58CB000AFF860B9607A60EFF30583C0
:104B20007B617B69002B03D06FF00503FB626BE0B8
:104B3000FB68002B03DA6FF00303FB6264E0BB68E1
:104B400003F00203002B02D00023BB6201E0FB68EC
:104B5000BB620023FB627B687B62FEF791F93862DF
:104B600007F110027B6AB96A0020FEF7ADFFF86119
:104B7000FB69012B37D1FA6AFB681340FB623B6982
:104B8000FA6A1343FB62BB6803F00103002B0CD0ED
:104B9000FA68FB6A1340FA689A4232D07B68002BAD
:104BA0000FD16FF00203FB622EE0FA68FB6A13403C
:104BB000002B28D17B68002B03D16FF00203FB622E
:104BC00022E0FEF75DF902463B6AD31ABB61BA697F
:104BD0007B6A9A4202D900237B620EE07A6ABB6943
:104BE000D31A7B6209E07B68002B03D16FF00203CC
:104BF000FB6202E06FF00103FB62FB69002BAFD1A7
:104C000002E000BF00E000BFFB6A18463037BD4637
:104C100080BD80B584B000AF7860EFF30583BB60E2
:104C2000BB68002B03D06FF00503FB6007E0002397
:104C3000FB607B68002B02D07868FDF7A1FFFB6862
:104C400018461037BD4680BD80B584B000AF78608F
:104C50007868FFF765FDF860FB68002B05D0FB68FE
:104C60001B68FA6852681046984700BF1037BD4667
:104C700080BD000080B58CB002AFF8607A603B6008
:104C80000B46FB7200233B62EFF305833B613B69FC
:104C9000002B63D1FB68002B60D0082000F068FE79
:104CA00078617B69002B59D07B69FA681A607B694F
:104CB0007A685A60FB7A002B02D10023FB6101E085
:104CC0000123FB614FF0FF33BB6100237B623B6834
:104CD000002B1CD03B681B68002B02D03B681B6874
:104CE0007B623B689B68002B06D03B68DB682B2B04
:104CF00002D90123BB610CE03B689B68002B08D103
:104D00003B68DB68002B04D10023BB6101E000237A
:104D1000BB61BB69012B0CD13B689B680193124BB3
:104D200000937B69FA690121786AFFF77AF93862A2
:104D30000BE0BB69002B08D10B4B00937B69FA6930
:104D40000121786AFFF74CF938623B6A002B05D1E4
:104D50007B69002B02D0786900F0D6FE3B6A1846CA
:104D60002837BD4680BD00BF494C000880B588B0DB
:104D700002AF786039607B683B61EFF30583FB60CD
:104D8000FB68002B03D06FF005037B6117E03B69E4
:104D9000002B03D16FF003037B6110E0002300932D
:104DA00000233A6804213869FFF7B4F90346012B60
:104DB00002D100237B6102E06FF002037B617B691B
:104DC00018461837BD4680BD80B586B000AF786004
:104DD00000237B61EFF30583FB60FB68002B2DD183
:104DE0004FF0FF333B617B68002B15D07B689B68DD
:104DF000002B06D07B68DB681F2B02D901233B61A7
:104E00000CE07B689B68002B08D17B68DB68002B7B
:104E100004D100233B6101E000233B613B69012B8E
:104E200006D17B689B681846FCF798F9786105E025
:104E30003B69002B02D1FCF7C8F978617B69184601
:104E40001837BD4680BD000080B586B000AF7860E1
:104E500039607B683B613B69002B04D03B6803F001
:104E60007F43002B03D06FF003037B6128E0EFF357
:104E70000583FB60FB68002B1DD00023BB6007F19E
:104E800008031A4639683869FCF7C0FB0346002B53
:104E900003D16FF002037B6112E03B687B61BB686A
:104EA000002B0DD0094B4FF080521A60BFF34F8F8B
:104EB000BFF36F8F04E039683869FCF7DFFA786177
:104EC0007B6918461837BD4680BD00BF04ED00E081
:104ED00080B586B000AF786039607B683B613B6924
:104EE000002B04D03B6803F07F43002B03D06FF00E
:104EF00003037B6119E0EFF30583FB60FB68002B84
:104F00000ED03869FCF796FA786139683869FCF791
:104F10007DFA0346002B08D16FF002037B6104E0A9
:104F200039683869FCF73AFA78617B6918461837AE
:104F3000BD4680BD80B58CB002AFF860B9607A60C4
:104F40003B60FB68BB61BB69002B04D0BB6803F00E
:104F50007F43002B03D06FF00303FB614BE0EFF3C3
:104F600005837B617B69002B03D06FF00503FB6138
:104F700041E07B6803F00103002B02D001237B6238
:104F800001E000237B627B6803F00203002B02D068
:104F900000233B6201E001233B623B6800937B6A94
:104FA0003A6AB968B869FCF72BF9F8617B6803F0D5
:104FB0000103002B10D0BA68FB691340BA689A420B
:104FC00019D03B68002B03D06FF00103FB6112E0A6
:104FD0006FF00203FB610EE0BA68FB691340002B1F
:104FE00009D13B68002B03D06FF00103FB6102E0A5
:104FF0006FF00203FB61FB6918462837BD4680BD90
:1050000080B58AB002AFF860B9607A600023FB61B6
:10501000EFF305833B613B69002B75D1FB68002BE7
:1050200072D0BA68FB689A426ED84FF0FF33BB610A
:105030007B68002B15D07B689B68002B06D07B68B3
:10504000DB684F2B02D90123BB610CE07B689B68B6
:10505000002B08D17B68DB68002B04D10023BB61E7
:1050600001E00023BB61BB69B3F1FF3F4CD0FB689B
:10507000012B28D1BB69012B0AD17B689B680322D5
:105080000092002200210120FCF7F0FBF86105E00E
:10509000032200210120FCF761FCF861FB69002B71
:1050A00022D0BB68002B1FD0002300220021F8690A
:1050B000FCF71CFD0346012B16D0F869FDF7E4F957
:1050C0000023FB6110E0BB69012B08D17B689B6862
:1050D0001A46B968F868FCF79EFCF86104E0B96804
:1050E000F868FCF7CFFCF861FB69002B0CD07B68FB
:1050F000002B03D07B681B687B6101E000237B6190
:105100007969F869FDF70CFBFB6918462037BD4645
:1051100080BD000080B586B000AF786039607B68E4
:105120003B6100237B613B69002B03D16FF00303DC
:105130007B6139E0EFF30583FB60FB68002B22D035
:105140003B68002B03D06FF003037B612CE000234E
:10515000BB6007F108031A4600213869FDF7D8F84B
:105160000346012B03D06FF002037B611CE0BB6898
:10517000002B19D00F4B4FF080521A60BFF34F8FA6
:10518000BFF36F8F10E039683869FCF7B5FF03464D
:10519000012B09D03B68002B03D06FF001037B612A
:1051A00002E06FF002037B617B6918461837BD4649
:1051B00080BD00BF04ED00E080B586B000AF786030
:1051C0007B683B6100237B613B69002B03D16FF05F
:1051D00003037B612CE0EFF30583FB60FB68002B8E
:1051E0001AD00023BB6007F1080319463869FCF7A1
:1051F00016FE0346012B03D06FF002037B6117E01C
:10520000BB68002B14D00D4B4FF080521A60BFF3D7
:105210004F8FBFF36F8F0BE000230022002138690E
:10522000FCF764FC0346012B02D06FF002037B61A4
:105230007B6918461837BD4680BD00BF04ED00E00D
:1052400080B58AB002AFF860B9607A600023FB6174
:10525000EFF305833B613B69002B5FD1FB68002BBB
:105260005CD0BB68002B59D04FF0FF33BB617B682B
:10527000002B29D07B689B68002B12D07B68DB68F1
:105280004F2B0ED97B681B69002B0AD07B685A69AB
:10529000FB68B96801FB03F39A4202D30123BB61A7
:1052A00014E07B689B68002B10D17B68DB68002BC7
:1052B0000CD17B681B69002B08D17B685B69002BD4
:1052C00004D10023BB6101E00023BB61BB69012B5A
:1052D0000BD17B681A697B689B6800210091B968D3
:1052E000F868FCF7C3FAF86108E0BB69002B05D148
:1052F0000022B968F868FCF731FBF861FB69002B04
:105300000CD07B68002B03D07B681B687B6101E0BD
:1053100000237B617969F869FDF702FAFB69184699
:105320002037BD4680BD000080B588B000AFF86072
:10533000B9603B601346FB71FB68BB610023FB61F6
:10534000EFF305837B617B69002B28D0BB69002BC1
:1053500005D0BB68002B02D03B68002B03D06FF058
:105360000303FB6138E000233B6107F110020023D7
:10537000B968B869FCF7B8FC0346012B03D06FF09D
:105380000203FB6128E03B69002B25D0154B4FF051
:1053900080521A60BFF34F8FBFF36F8F1CE0BB6961
:1053A000002B02D0BB68002B03D16FF00303FB611D
:1053B00012E000233A68B968B869FCF797FB034626
:1053C000012B09D03B68002B03D06FF00103FB6178
:1053D00002E06FF00203FB61FB6918462037BD460F
:1053E00080BD00BF04ED00E080B588B000AFF8607C
:1053F000B9607A603B60FB68BB610023FB61EFF33F
:1054000005837B617B69002B28D0BB69002B05D00D
:10541000BB68002B02D03B68002B03D06FF0030366
:10542000FB6137E000233B6107F110031A46B968BE
:10543000B869FCF76DFF0346012B03D06FF0020340
:10544000FB6127E03B69002B24D0154B4FF08052C5
:105450001A60BFF34F8FBFF36F8F1BE0BB69002B48
:1054600002D0BB68002B03D16FF00303FB6111E096
:105470003A68B968B869FCF75FFD0346012B09D0AB
:105480003B68002B03D06FF00103FB6102E06FF07B
:105490000203FB61FB6918462037BD4680BD00BF93
:1054A00004ED00E080B58AB000AFF860B9607A60C2
:1054B000EFF305833B613B69002B02D000237B6245
:1054C000BEE0FB68002B02D0BB68002B02D100239A
:1054D0007B62B5E000237B62BB68033323F00302E9
:1054E000FB6802FB03F37B6100233B624FF0FF3359
:1054F000FB614FF0FF33BB617B68002B38D07B68CA
:105500001B68002B02D07B681B683B627B689B6832
:10551000002B06D07B68DB68732B02D90123FB616B
:1055200009E07B689B68002B05D17B68DB68002B5A
:1055300001D10023FB617B681B69002B06D17B68CE
:105540005B69002B02D10023BB6115E07B681B69FE
:10555000002B11D07B681B6903F00303002B0BD1D8
:105560007B685B697A699A4206D80123BB6103E0D4
:105570000023FB610023BB61FB69002B04D1742075
:1055800000F0F6F9786202E07B689B687B627B6AD8
:10559000002B1BD07B6A24331A46F968F868FCF7A5
:1055A0003AFA02467B6A5A607B6A5B68002B0DD030
:1055B000BB69002B06D1786900F0DAF902467B6AF4
:1055C0009A6003E07B681A697B6A9A607B6A002BA9
:1055D0002BD07B6A9B68002B27D07B6A00221A6045
:1055E0007B6A7A69DA607B6A3A6A1A617B6ABA68AE
:1055F0005A617B6AFA689A617B6A0022DA617B6A87
:10560000124A1A62FB69002B05D17B6A1B6A43F0C0
:1056100001027B6A1A62BB69002B11D17B6A1B6A8B
:1056200043F002027B6A1A620AE0FB69002B05D193
:105630007B6A002B02D0786A00F066FA00237B6256
:105640007B6A18462837BD4680BD00BF0000ED5E6E
:1056500080B58AB000AF786039607B68002B02D1DA
:1056600000237B6262E000237B627B683B623B6AD3
:105670001A6A314B1340304A934257D1EFF30583F6
:10568000BB61BB69002B32D03B68002B4ED13B6A1B
:105690005B68002200211846FCF73AFE0346012B06
:1056A00044D13B6A1A6A244B1340234A93423DD1AA
:1056B000EFF311824FF0500383F31188BFF36F8F24
:1056C000BFF34F8F7A613B617B69FB61386A00F001
:1056D000EFF878627B6A002B03D1386A00F0C6F8D5
:1056E0007862FB69FB60FB6883F311881EE03B6A0C
:1056F0005B6839681846FCF7FFFC0346012B15D19F
:105700003B6A1A6A0C4B13400B4A93420ED100F0CD
:1057100049FC386A00F0CCF878627B6A002B03D130
:10572000386A00F0A3F8786200F06CFC7B6A1846D7
:105730002837BD4680BD00BF0000ED5E80B58AB051
:1057400000AF786039607B68002B02D03B68002B8B
:1057500003D16FF003037B627FE07B683B623B6AAF
:105760001A6A404B13403F4A934203D06FF0020342
:105770007B6272E03B6A9B683A689A4208D33B6A54
:105780009A683B6ADB68013B13443A689A4203D942
:105790006FF003037B6260E000237B62EFF305831D
:1057A000BB61BB69002B3BD03B6A5B681846FCF7CA
:1057B0004DFE02463B6A9B699A4203D16FF0020399
:1057C0007B624AE0EFF311824FF0500383F31188BC
:1057D000BFF36F8FBFF34F8F3A61FB603B69FB6193
:1057E0003968386A00F07CF8FB697B617B6983F378
:1057F000118800BF0023BB603B6A5B6807F10802A9
:1058000011461846FCF70BFBBB68002B25D0164B46
:105810004FF080521A60BFF34F8FBFF36F8F1CE0C1
:105820003B6A5B681846FCF7F3FD02463B6A9B69DE
:105830009A4203D16FF002037B620EE000F0B2FBEC
:105840003968386A00F04CF800F0DCFB3B6A5868B5
:10585000002300220021FCF749F97B6A184628370B
:10586000BD4680BD0000ED5E04ED00E080B485B073
:1058700000AF78600023FB607B68DA697B689B6916
:105880009A420ED27B689A687B685B697968C969BD
:1058900001FB03F31344FB607B68DB695A1C7B68E4
:1058A000DA61FB6818461437BD465DF8047B704723
:1058B00080B485B000AF78600023FB607B681B6814
:1058C000002B06D07B681B68FB60FB681A687B684E
:1058D0001A60FB6818461437BD465DF8047B7047B4
:1058E00080B485B000AF786039603B68FB607B684E
:1058F0001A68FB681A607B68FA681A6000BF143780
:10590000BD465DF8047B704780B485B000AFF86099
:10591000B9607A60FB68074A1A60BB68064A1A6079
:105920007B6880221A6000BF1437BD465DF8047B97
:10593000704700BF50440020B444002080B485B0BC
:1059400000AFF860B9607A60FB68074A1A60BB680C
:10595000064A1A607B684FF480721A6000BF1437E1
:10596000BD465DF8047B7047B44600201847002010
:1059700080B58AB000AF78600023FB61FDF79CF929
:105980005B4B1B68002B01D100F020F9594B1A68C2
:105990007B681340002B40F093807B68002B1DD068
:1059A00008227B6813447B607B6803F00703002BAD
:1059B00014D07B6823F0070308337B607B6803F017
:1059C0000703002B0AD04FF0500383F31188BFF375
:1059D0006F8FBFF34F8F7B6100BFFEE77B68002BAB
:1059E0006ED0454B1B687A689A4269D8434B3B623C
:1059F000424B1B687B6204E07B6A3B627B6A1B68EC
:105A00007B627B6A5B687A689A4203D97B6A1B680F
:105A1000002BF1D1364B1B687A6A9A4250D03B6A10
:105A20001B6808221344FB617B6A1A683B6A1A6090
:105A30007B6A5A687B68D21A08235B009A421FD996
:105A40007A6A7B681344BB61BB6903F00703002BD0
:105A50000AD04FF0500383F31188BFF36F8FBFF369
:105A60004F8F3B6100BFFEE77B6A5A687B68D21AA2
:105A7000BB695A607B6A7A685A60B86900F008F9B5
:105A80001D4B1A687B6A5B68D31A1B4A13601A4B5A
:105A90001A681B4B1B689A4203D2174B1B68184AA3
:105AA00013607B6A5A68134B1B681A437B6A5A60FF
:105AB0007B6A00221A60134B1B680133114A136082
:105AC000FDF740F9FB6903F00703002B0AD04FF004
:105AD000500383F31188BFF36F8FBFF34F8FFB60C9
